{
	"contracts/FundMe.sol": {
		"FundMe": {
			"abi": [
				{
					"inputs": [],
					"stateMutability": "nonpayable",
					"type": "constructor"
				},
				{
					"inputs": [],
					"name": "notOwner",
					"type": "error"
				},
				{
					"stateMutability": "payable",
					"type": "fallback"
				},
				{
					"inputs": [
						{
							"internalType": "address",
							"name": "funder",
							"type": "address"
						}
					],
					"name": "addressToAmountFunded",
					"outputs": [
						{
							"internalType": "uint256",
							"name": "amountFunded",
							"type": "uint256"
						}
					],
					"stateMutability": "view",
					"type": "function"
				},
				{
					"inputs": [],
					"name": "fund",
					"outputs": [],
					"stateMutability": "payable",
					"type": "function"
				},
				{
					"inputs": [
						{
							"internalType": "uint256",
							"name": "",
							"type": "uint256"
						}
					],
					"name": "funders",
					"outputs": [
						{
							"internalType": "address",
							"name": "",
							"type": "address"
						}
					],
					"stateMutability": "view",
					"type": "function"
				},
				{
					"inputs": [],
					"name": "minimumUSD",
					"outputs": [
						{
							"internalType": "uint256",
							"name": "",
							"type": "uint256"
						}
					],
					"stateMutability": "view",
					"type": "function"
				},
				{
					"inputs": [],
					"name": "owner",
					"outputs": [
						{
							"internalType": "address",
							"name": "",
							"type": "address"
						}
					],
					"stateMutability": "view",
					"type": "function"
				},
				{
					"inputs": [],
					"name": "withdraw",
					"outputs": [],
					"stateMutability": "nonpayable",
					"type": "function"
				},
				{
					"stateMutability": "payable",
					"type": "receive"
				}
			],
			"devdoc": {
				"kind": "dev",
				"methods": {},
				"version": 1
			},
			"evm": {
				"assembly": "    /* \"contracts/FundMe.sol\":131:3609  contract FundMe{... */\n  mstore(0x40, 0xa0)\n    /* \"contracts/FundMe.sol\":1307:1355  constructor(){... */\n  callvalue\n  dup1\n  iszero\n  tag_1\n  jumpi\n  0x00\n  dup1\n  revert\ntag_1:\n  pop\n    /* \"contracts/FundMe.sol\":1338:1348  msg.sender */\n  caller\n    /* \"contracts/FundMe.sol\":1330:1348  owner = msg.sender */\n  0xffffffffffffffffffffffffffffffffffffffff\n  and\n  0x80\n  dup2\n  0xffffffffffffffffffffffffffffffffffffffff\n  and\n  dup2\n  mstore\n  pop\n  pop\n    /* \"contracts/FundMe.sol\":131:3609  contract FundMe{... */\n  mload(0x80)\n  codecopy(0x00, dataOffset(sub_0), dataSize(sub_0))\n  0x00\n  assignImmutable(\"0x32da71dbd53bc029835bc5ecdd3e688035cc92bb61b1811d1685e67ba974e19f\")\n  return(0x00, dataSize(sub_0))\nstop\n\nsub_0: assembly {\n        /* \"contracts/FundMe.sol\":131:3609  contract FundMe{... */\n      mstore(0x40, 0x80)\n      jumpi(tag_1, lt(calldatasize, 0x04))\n      shr(0xe0, calldataload(0x00))\n      dup1\n      0x3430a88c\n      eq\n      tag_3\n      jumpi\n      dup1\n      0x3ccfd60b\n      eq\n      tag_4\n      jumpi\n      dup1\n      0x3e47d6f3\n      eq\n      tag_5\n      jumpi\n      dup1\n      0x8da5cb5b\n      eq\n      tag_6\n      jumpi\n      dup1\n      0xb60d4288\n      eq\n      tag_7\n      jumpi\n      dup1\n      0xdc0d3dff\n      eq\n      tag_8\n      jumpi\n      jump(tag_2)\n    tag_1:\n      jumpi(tag_2, calldatasize)\n        /* \"contracts/FundMe.sol\":972:978  fund() */\n      tag_11\n        /* \"contracts/FundMe.sol\":972:976  fund */\n      tag_12\n        /* \"contracts/FundMe.sol\":972:978  fund() */\n      jump\t// in\n    tag_11:\n        /* \"contracts/FundMe.sol\":131:3609  contract FundMe{... */\n      stop\n    tag_2:\n        /* \"contracts/FundMe.sol\":916:922  fund() */\n      tag_15\n        /* \"contracts/FundMe.sol\":916:920  fund */\n      tag_12\n        /* \"contracts/FundMe.sol\":916:922  fund() */\n      jump\t// in\n    tag_15:\n        /* \"contracts/FundMe.sol\":131:3609  contract FundMe{... */\n      stop\n        /* \"contracts/FundMe.sol\":596:637  uint256 public constant minimumUSD = 5e18 */\n    tag_3:\n      callvalue\n      dup1\n      iszero\n      tag_16\n      jumpi\n      0x00\n      dup1\n      revert\n    tag_16:\n      pop\n      tag_17\n      tag_18\n      jump\t// in\n    tag_17:\n      mload(0x40)\n      tag_19\n      swap2\n      swap1\n      tag_20\n      jump\t// in\n    tag_19:\n      mload(0x40)\n      dup1\n      swap2\n      sub\n      swap1\n      return\n        /* \"contracts/FundMe.sol\":1788:3234  function withdraw() public onlyOwner{... */\n    tag_4:\n      callvalue\n      dup1\n      iszero\n      tag_21\n      jumpi\n      0x00\n      dup1\n      revert\n    tag_21:\n      pop\n      tag_22\n      tag_23\n      jump\t// in\n    tag_22:\n      stop\n        /* \"contracts/FundMe.sol\":794:870  mapping(address funder => uint256 amountFunded) public addressToAmountFunded */\n    tag_5:\n      callvalue\n      dup1\n      iszero\n      tag_24\n      jumpi\n      0x00\n      dup1\n      revert\n    tag_24:\n      pop\n      tag_25\n      0x04\n      dup1\n      calldatasize\n      sub\n      dup2\n      add\n      swap1\n      tag_26\n      swap2\n      swap1\n      tag_27\n      jump\t// in\n    tag_26:\n      tag_28\n      jump\t// in\n    tag_25:\n      mload(0x40)\n      tag_29\n      swap2\n      swap1\n      tag_20\n      jump\t// in\n    tag_29:\n      mload(0x40)\n      dup1\n      swap2\n      sub\n      swap1\n      return\n        /* \"contracts/FundMe.sol\":191:221  address public immutable owner */\n    tag_6:\n      callvalue\n      dup1\n      iszero\n      tag_30\n      jumpi\n      0x00\n      dup1\n      revert\n    tag_30:\n      pop\n      tag_31\n      tag_32\n      jump\t// in\n    tag_31:\n      mload(0x40)\n      tag_33\n      swap2\n      swap1\n      tag_34\n      jump\t// in\n    tag_33:\n      mload(0x40)\n      dup1\n      swap2\n      sub\n      swap1\n      return\n        /* \"contracts/FundMe.sol\":1435:1782  function fund() public payable {... */\n    tag_7:\n      tag_35\n      tag_12\n      jump\t// in\n    tag_35:\n      stop\n        /* \"contracts/FundMe.sol\":706:730  address[] public funders */\n    tag_8:\n      callvalue\n      dup1\n      iszero\n      tag_36\n      jumpi\n      0x00\n      dup1\n      revert\n    tag_36:\n      pop\n      tag_37\n      0x04\n      dup1\n      calldatasize\n      sub\n      dup2\n      add\n      swap1\n      tag_38\n      swap2\n      swap1\n      tag_39\n      jump\t// in\n    tag_38:\n      tag_40\n      jump\t// in\n    tag_37:\n      mload(0x40)\n      tag_41\n      swap2\n      swap1\n      tag_34\n      jump\t// in\n    tag_41:\n      mload(0x40)\n      dup1\n      swap2\n      sub\n      swap1\n      return\n        /* \"contracts/FundMe.sol\":1435:1782  function fund() public payable {... */\n    tag_12:\n        /* \"contracts/FundMe.sol\":633:637  5e18 */\n      0x4563918244f40000\n        /* \"contracts/FundMe.sol\":1484:1513  msg.value.getConversionRate() */\n      tag_43\n        /* \"contracts/FundMe.sol\":1484:1493  msg.value */\n      callvalue\n        /* \"contracts/FundMe.sol\":1484:1511  msg.value.getConversionRate */\n      tag_44\n        /* \"contracts/FundMe.sol\":1484:1513  msg.value.getConversionRate() */\n      jump\t// in\n    tag_43:\n        /* \"contracts/FundMe.sol\":1484:1527  msg.value.getConversionRate() >= minimumUSD */\n      lt\n      iszero\n        /* \"contracts/FundMe.sol\":1476:1552  require(msg.value.getConversionRate() >= minimumUSD,\"Didnt send enough ETH\") */\n      tag_45\n      jumpi\n      mload(0x40)\n      0x08c379a000000000000000000000000000000000000000000000000000000000\n      dup2\n      mstore\n      0x04\n      add\n      tag_46\n      swap1\n      tag_47\n      jump\t// in\n    tag_46:\n      mload(0x40)\n      dup1\n      swap2\n      sub\n      swap1\n      revert\n    tag_45:\n        /* \"contracts/FundMe.sol\":1563:1570  funders */\n      0x00\n        /* \"contracts/FundMe.sol\":1576:1586  msg.sender */\n      caller\n        /* \"contracts/FundMe.sol\":1563:1587  funders.push(msg.sender) */\n      swap1\n      dup1\n      0x01\n      dup2\n      sload\n      add\n      dup1\n      dup3\n      sstore\n      dup1\n      swap2\n      pop\n      pop\n      0x01\n      swap1\n      sub\n      swap1\n      0x00\n      mstore\n      keccak256(0x00, 0x20)\n      add\n      0x00\n      swap1\n      swap2\n      swap1\n      swap2\n      swap1\n      swap2\n      0x0100\n      exp\n      dup2\n      sload\n      dup2\n      0xffffffffffffffffffffffffffffffffffffffff\n      mul\n      not\n      and\n      swap1\n      dup4\n      0xffffffffffffffffffffffffffffffffffffffff\n      and\n      mul\n      or\n      swap1\n      sstore\n      pop\n        /* \"contracts/FundMe.sol\":1766:1775  msg.value */\n      callvalue\n        /* \"contracts/FundMe.sol\":1730:1751  addressToAmountFunded */\n      0x01\n        /* \"contracts/FundMe.sol\":1730:1763  addressToAmountFunded[msg.sender] */\n      0x00\n        /* \"contracts/FundMe.sol\":1752:1762  msg.sender */\n      caller\n        /* \"contracts/FundMe.sol\":1730:1763  addressToAmountFunded[msg.sender] */\n      0xffffffffffffffffffffffffffffffffffffffff\n      and\n      0xffffffffffffffffffffffffffffffffffffffff\n      and\n      dup2\n      mstore\n      0x20\n      add\n      swap1\n      dup2\n      mstore\n      0x20\n      add\n      0x00\n      keccak256\n      sload\n        /* \"contracts/FundMe.sol\":1730:1775  addressToAmountFunded[msg.sender] + msg.value */\n      tag_49\n      swap2\n      swap1\n      tag_50\n      jump\t// in\n    tag_49:\n        /* \"contracts/FundMe.sol\":1694:1715  addressToAmountFunded */\n      0x01\n        /* \"contracts/FundMe.sol\":1694:1727  addressToAmountFunded[msg.sender] */\n      0x00\n        /* \"contracts/FundMe.sol\":1716:1726  msg.sender */\n      caller\n        /* \"contracts/FundMe.sol\":1694:1727  addressToAmountFunded[msg.sender] */\n      0xffffffffffffffffffffffffffffffffffffffff\n      and\n      0xffffffffffffffffffffffffffffffffffffffff\n      and\n      dup2\n      mstore\n      0x20\n      add\n      swap1\n      dup2\n      mstore\n      0x20\n      add\n      0x00\n      keccak256\n        /* \"contracts/FundMe.sol\":1694:1775  addressToAmountFunded[msg.sender] = addressToAmountFunded[msg.sender] + msg.value */\n      dup2\n      swap1\n      sstore\n      pop\n        /* \"contracts/FundMe.sol\":1435:1782  function fund() public payable {... */\n      jump\t// out\n        /* \"contracts/FundMe.sol\":596:637  uint256 public constant minimumUSD = 5e18 */\n    tag_18:\n        /* \"contracts/FundMe.sol\":633:637  5e18 */\n      0x4563918244f40000\n        /* \"contracts/FundMe.sol\":596:637  uint256 public constant minimumUSD = 5e18 */\n      dup2\n      jump\t// out\n        /* \"contracts/FundMe.sol\":1788:3234  function withdraw() public onlyOwner{... */\n    tag_23:\n        /* \"contracts/FundMe.sol\":3537:3542  owner */\n      immutable(\"0x32da71dbd53bc029835bc5ecdd3e688035cc92bb61b1811d1685e67ba974e19f\")\n        /* \"contracts/FundMe.sol\":3523:3542  msg.sender != owner */\n      0xffffffffffffffffffffffffffffffffffffffff\n      and\n        /* \"contracts/FundMe.sol\":3523:3533  msg.sender */\n      caller\n        /* \"contracts/FundMe.sol\":3523:3542  msg.sender != owner */\n      0xffffffffffffffffffffffffffffffffffffffff\n      and\n      eq\n        /* \"contracts/FundMe.sol\":3520:3585  if(msg.sender != owner){... */\n      tag_52\n      jumpi\n        /* \"contracts/FundMe.sol\":3564:3574  notOwner() */\n      mload(0x40)\n      0x251c9d6300000000000000000000000000000000000000000000000000000000\n      dup2\n      mstore\n      0x04\n      add\n      mload(0x40)\n      dup1\n      swap2\n      sub\n      swap1\n      revert\n        /* \"contracts/FundMe.sol\":3520:3585  if(msg.sender != owner){... */\n    tag_52:\n        /* \"contracts/FundMe.sol\":1995:2004  uint256 i */\n      0x00\n        /* \"contracts/FundMe.sol\":1991:2145  for(uint256 i = 0; i < funders.length; i++){... */\n    tag_54:\n        /* \"contracts/FundMe.sol\":2014:2021  funders */\n      0x00\n        /* \"contracts/FundMe.sol\":2014:2028  funders.length */\n      dup1\n      sload\n      swap1\n      pop\n        /* \"contracts/FundMe.sol\":2010:2011  i */\n      dup2\n        /* \"contracts/FundMe.sol\":2010:2028  i < funders.length */\n      lt\n        /* \"contracts/FundMe.sol\":1991:2145  for(uint256 i = 0; i < funders.length; i++){... */\n      iszero\n      tag_55\n      jumpi\n        /* \"contracts/FundMe.sol\":2048:2062  address funder */\n      0x00\n        /* \"contracts/FundMe.sol\":2065:2072  funders */\n      dup1\n        /* \"contracts/FundMe.sol\":2073:2074  i */\n      dup3\n        /* \"contracts/FundMe.sol\":2065:2075  funders[i] */\n      dup2\n      sload\n      dup2\n      lt\n      tag_57\n      jumpi\n      tag_58\n      tag_59\n      jump\t// in\n    tag_58:\n    tag_57:\n      swap1\n      0x00\n      mstore\n      keccak256(0x00, 0x20)\n      add\n      0x00\n      swap1\n      sload\n      swap1\n      0x0100\n      exp\n      swap1\n      div\n      0xffffffffffffffffffffffffffffffffffffffff\n      and\n        /* \"contracts/FundMe.sol\":2048:2075  address funder = funders[i] */\n      swap1\n      pop\n        /* \"contracts/FundMe.sol\":2121:2122  0 */\n      0x00\n        /* \"contracts/FundMe.sol\":2089:2110  addressToAmountFunded */\n      0x01\n        /* \"contracts/FundMe.sol\":2089:2118  addressToAmountFunded[funder] */\n      0x00\n        /* \"contracts/FundMe.sol\":2111:2117  funder */\n      dup4\n        /* \"contracts/FundMe.sol\":2089:2118  addressToAmountFunded[funder] */\n      0xffffffffffffffffffffffffffffffffffffffff\n      and\n      0xffffffffffffffffffffffffffffffffffffffff\n      and\n      dup2\n      mstore\n      0x20\n      add\n      swap1\n      dup2\n      mstore\n      0x20\n      add\n      0x00\n      keccak256\n        /* \"contracts/FundMe.sol\":2089:2122  addressToAmountFunded[funder] = 0 */\n      dup2\n      swap1\n      sstore\n      pop\n        /* \"contracts/FundMe.sol\":2034:2145  {... */\n      pop\n        /* \"contracts/FundMe.sol\":2030:2033  i++ */\n      dup1\n      dup1\n      tag_61\n      swap1\n      tag_62\n      jump\t// in\n    tag_61:\n      swap2\n      pop\n      pop\n        /* \"contracts/FundMe.sol\":1991:2145  for(uint256 i = 0; i < funders.length; i++){... */\n      jump(tag_54)\n    tag_55:\n      pop\n        /* \"contracts/FundMe.sol\":2217:2218  0 */\n      0x00\n        /* \"contracts/FundMe.sol\":2203:2219  new address[](0) */\n      0xffffffffffffffff\n      dup2\n      gt\n      iszero\n      tag_63\n      jumpi\n      tag_64\n      tag_65\n      jump\t// in\n    tag_64:\n    tag_63:\n      mload(0x40)\n      swap1\n      dup1\n      dup3\n      mstore\n      dup1\n      0x20\n      mul\n      0x20\n      add\n      dup3\n      add\n      0x40\n      mstore\n      dup1\n      iszero\n      tag_66\n      jumpi\n      dup2\n      0x20\n      add\n      0x20\n      dup3\n      mul\n      dup1\n      calldatasize\n      dup4\n      calldatacopy\n      dup1\n      dup3\n      add\n      swap2\n      pop\n      pop\n      swap1\n      pop\n    tag_66:\n      pop\n        /* \"contracts/FundMe.sol\":2193:2200  funders */\n      0x00\n        /* \"contracts/FundMe.sol\":2193:2219  funders = new address[](0) */\n      swap1\n      dup1\n      mload\n      swap1\n      0x20\n      add\n      swap1\n      tag_67\n      swap3\n      swap2\n      swap1\n      tag_68\n      jump\t// in\n    tag_67:\n      pop\n        /* \"contracts/FundMe.sol\":2451:2461  msg.sender */\n      caller\n        /* \"contracts/FundMe.sol\":2442:2471  payable (msg.sender).transfer */\n      0xffffffffffffffffffffffffffffffffffffffff\n      and\n        /* \"contracts/FundMe.sol\":2442:2494  payable (msg.sender).transfer(address(this).balance) */\n      0x08fc\n        /* \"contracts/FundMe.sol\":2472:2493  address(this).balance */\n      selfbalance\n        /* \"contracts/FundMe.sol\":2442:2494  payable (msg.sender).transfer(address(this).balance) */\n      swap1\n      dup2\n      iszero\n      mul\n      swap1\n      mload(0x40)\n      0x00\n      mload(0x40)\n      dup1\n      dup4\n      sub\n      dup2\n      dup6\n      dup9\n      dup9\n      call\n      swap4\n      pop\n      pop\n      pop\n      pop\n      iszero\n      dup1\n      iszero\n      tag_70\n      jumpi\n      returndatasize\n      0x00\n      dup1\n      returndatacopy\n      revert(0x00, returndatasize)\n    tag_70:\n      pop\n        /* \"contracts/FundMe.sol\":2644:2660  bool sendsuccess */\n      0x00\n        /* \"contracts/FundMe.sol\":2672:2682  msg.sender */\n      caller\n        /* \"contracts/FundMe.sol\":2663:2688  payable (msg.sender).send */\n      0xffffffffffffffffffffffffffffffffffffffff\n      and\n        /* \"contracts/FundMe.sol\":2663:2711  payable (msg.sender).send(address(this).balance) */\n      0x08fc\n        /* \"contracts/FundMe.sol\":2689:2710  address(this).balance */\n      selfbalance\n        /* \"contracts/FundMe.sol\":2663:2711  payable (msg.sender).send(address(this).balance) */\n      swap1\n      dup2\n      iszero\n      mul\n      swap1\n      mload(0x40)\n      0x00\n      mload(0x40)\n      dup1\n      dup4\n      sub\n      dup2\n      dup6\n      dup9\n      dup9\n      call\n      swap4\n      pop\n      pop\n      pop\n      pop\n        /* \"contracts/FundMe.sol\":2644:2711  bool sendsuccess = payable (msg.sender).send(address(this).balance) */\n      swap1\n      pop\n        /* \"contracts/FundMe.sol\":2729:2740  sendsuccess */\n      dup1\n        /* \"contracts/FundMe.sol\":2721:2755  require(sendsuccess,\"Send failed\") */\n      tag_72\n      jumpi\n      mload(0x40)\n      0x08c379a000000000000000000000000000000000000000000000000000000000\n      dup2\n      mstore\n      0x04\n      add\n      tag_73\n      swap1\n      tag_74\n      jump\t// in\n    tag_73:\n      mload(0x40)\n      dup1\n      swap2\n      sub\n      swap1\n      revert\n    tag_72:\n        /* \"contracts/FundMe.sol\":3124:3130  bool s */\n      0x00\n        /* \"contracts/FundMe.sol\":3144:3154  msg.sender */\n      caller\n        /* \"contracts/FundMe.sol\":3135:3160  payable (msg.sender).call */\n      0xffffffffffffffffffffffffffffffffffffffff\n      and\n        /* \"contracts/FundMe.sol\":3167:3188  address(this).balance */\n      selfbalance\n        /* \"contracts/FundMe.sol\":3135:3193  payable (msg.sender).call{value:address(this).balance}(\"\") */\n      mload(0x40)\n      tag_75\n      swap1\n      tag_76\n      jump\t// in\n    tag_75:\n      0x00\n      mload(0x40)\n      dup1\n      dup4\n      sub\n      dup2\n      dup6\n      dup8\n      gas\n      call\n      swap3\n      pop\n      pop\n      pop\n      returndatasize\n      dup1\n      0x00\n      dup2\n      eq\n      tag_79\n      jumpi\n      mload(0x40)\n      swap2\n      pop\n      and(add(returndatasize, 0x3f), not(0x1f))\n      dup3\n      add\n      0x40\n      mstore\n      returndatasize\n      dup3\n      mstore\n      returndatasize\n      0x00\n      0x20\n      dup5\n      add\n      returndatacopy\n      jump(tag_78)\n    tag_79:\n      0x60\n      swap2\n      pop\n    tag_78:\n      pop\n        /* \"contracts/FundMe.sol\":3123:3193  (bool s,) = payable (msg.sender).call{value:address(this).balance}(\"\") */\n      pop\n      swap1\n      pop\n        /* \"contracts/FundMe.sol\":3211:3212  s */\n      dup1\n        /* \"contracts/FundMe.sol\":3203:3227  require(s,\"Call failed\") */\n      tag_80\n      jumpi\n      mload(0x40)\n      0x08c379a000000000000000000000000000000000000000000000000000000000\n      dup2\n      mstore\n      0x04\n      add\n      tag_81\n      swap1\n      tag_82\n      jump\t// in\n    tag_81:\n      mload(0x40)\n      dup1\n      swap2\n      sub\n      swap1\n      revert\n    tag_80:\n        /* \"contracts/FundMe.sol\":1824:3234  {... */\n      pop\n      pop\n        /* \"contracts/FundMe.sol\":1788:3234  function withdraw() public onlyOwner{... */\n      jump\t// out\n        /* \"contracts/FundMe.sol\":794:870  mapping(address funder => uint256 amountFunded) public addressToAmountFunded */\n    tag_28:\n      mstore(0x20, 0x01)\n      dup1\n      0x00\n      mstore\n      keccak256(0x00, 0x40)\n      0x00\n      swap2\n      pop\n      swap1\n      pop\n      sload\n      dup2\n      jump\t// out\n        /* \"contracts/FundMe.sol\":191:221  address public immutable owner */\n    tag_32:\n      immutable(\"0x32da71dbd53bc029835bc5ecdd3e688035cc92bb61b1811d1685e67ba974e19f\")\n      dup2\n      jump\t// out\n        /* \"contracts/FundMe.sol\":706:730  address[] public funders */\n    tag_40:\n      0x00\n      dup2\n      dup2\n      sload\n      dup2\n      lt\n      tag_83\n      jumpi\n      0x00\n      dup1\n      revert\n    tag_83:\n      swap1\n      0x00\n      mstore\n      keccak256(0x00, 0x20)\n      add\n      0x00\n      swap2\n      pop\n      sload\n      swap1\n      0x0100\n      exp\n      swap1\n      div\n      0xffffffffffffffffffffffffffffffffffffffff\n      and\n      dup2\n      jump\t// out\n        /* \"contracts/PriceConverter.sol\":1272:1488  function getConversionRate(uint256 ethAmount)internal view returns(uint256){... */\n    tag_44:\n        /* \"contracts/PriceConverter.sol\":1339:1346  uint256 */\n      0x00\n        /* \"contracts/PriceConverter.sol\":1357:1373  uint256 ethPrice */\n      dup1\n        /* \"contracts/PriceConverter.sol\":1376:1386  getPrice() */\n      tag_86\n        /* \"contracts/PriceConverter.sol\":1376:1384  getPrice */\n      tag_87\n        /* \"contracts/PriceConverter.sol\":1376:1386  getPrice() */\n      jump\t// in\n    tag_86:\n        /* \"contracts/PriceConverter.sol\":1357:1386  uint256 ethPrice = getPrice() */\n      swap1\n      pop\n        /* \"contracts/PriceConverter.sol\":1396:1418  uint256 ethAmountInUSD */\n      0x00\n        /* \"contracts/PriceConverter.sol\":1446:1450  1e18 */\n      0x0de0b6b3a7640000\n        /* \"contracts/PriceConverter.sol\":1433:1442  ethAmount */\n      dup5\n        /* \"contracts/PriceConverter.sol\":1422:1430  ethPrice */\n      dup4\n        /* \"contracts/PriceConverter.sol\":1422:1442  ethPrice * ethAmount */\n      tag_88\n      swap2\n      swap1\n      tag_89\n      jump\t// in\n    tag_88:\n        /* \"contracts/PriceConverter.sol\":1421:1450  (ethPrice * ethAmount) / 1e18 */\n      tag_90\n      swap2\n      swap1\n      tag_91\n      jump\t// in\n    tag_90:\n        /* \"contracts/PriceConverter.sol\":1396:1450  uint256 ethAmountInUSD = (ethPrice * ethAmount) / 1e18 */\n      swap1\n      pop\n        /* \"contracts/PriceConverter.sol\":1467:1481  ethAmountInUSD */\n      dup1\n        /* \"contracts/PriceConverter.sol\":1460:1481  return ethAmountInUSD */\n      swap3\n      pop\n      pop\n      pop\n        /* \"contracts/PriceConverter.sol\":1272:1488  function getConversionRate(uint256 ethAmount)internal view returns(uint256){... */\n      swap2\n      swap1\n      pop\n      jump\t// out\n        /* \"contracts/PriceConverter.sol\":262:1150  function getPrice() internal view returns(uint256){... */\n    tag_87:\n        /* \"contracts/PriceConverter.sol\":304:311  uint256 */\n      0x00\n        /* \"contracts/PriceConverter.sol\":677:708  AggregatorV3Interface priceFeed */\n      dup1\n        /* \"contracts/PriceConverter.sol\":733:775  0x694AA1769357215DE4FAC081bf1f309aDC325306 */\n      0x694aa1769357215de4fac081bf1f309adc325306\n        /* \"contracts/PriceConverter.sol\":677:776  AggregatorV3Interface priceFeed = AggregatorV3Interface(0x694AA1769357215DE4FAC081bf1f309aDC325306) */\n      swap1\n      pop\n        /* \"contracts/PriceConverter.sol\":924:936  int256 price */\n      0x00\n        /* \"contracts/PriceConverter.sol\":943:952  priceFeed */\n      dup2\n        /* \"contracts/PriceConverter.sol\":943:968  priceFeed.latestRoundData */\n      0xffffffffffffffffffffffffffffffffffffffff\n      and\n      0xfeaf968c\n        /* \"contracts/PriceConverter.sol\":943:970  priceFeed.latestRoundData() */\n      mload(0x40)\n      dup2\n      0xffffffff\n      and\n      0xe0\n      shl\n      dup2\n      mstore\n      0x04\n      add\n      0xa0\n      mload(0x40)\n      dup1\n      dup4\n      sub\n      dup2\n      dup7\n      gas\n      staticcall\n      iszero\n      dup1\n      iszero\n      tag_94\n      jumpi\n      returndatasize\n      0x00\n      dup1\n      returndatacopy\n      revert(0x00, returndatasize)\n    tag_94:\n      pop\n      pop\n      pop\n      pop\n      mload(0x40)\n      returndatasize\n      not(0x1f)\n      0x1f\n      dup3\n      add\n      and\n      dup3\n      add\n      dup1\n      0x40\n      mstore\n      pop\n      dup2\n      add\n      swap1\n      tag_95\n      swap2\n      swap1\n      tag_96\n      jump\t// in\n    tag_95:\n        /* \"contracts/PriceConverter.sol\":922:970  (,int256 price,,,) = priceFeed.latestRoundData() */\n      pop\n      pop\n      pop\n      swap2\n      pop\n      pop\n        /* \"contracts/PriceConverter.sol\":1138:1142  1e10 */\n      0x02540be400\n        /* \"contracts/PriceConverter.sol\":1132:1137  price */\n      dup2\n        /* \"contracts/PriceConverter.sol\":1132:1142  price*1e10 */\n      tag_97\n      swap2\n      swap1\n      tag_98\n      jump\t// in\n    tag_97:\n        /* \"contracts/PriceConverter.sol\":1117:1143  return uint256(price*1e10) */\n      swap3\n      pop\n      pop\n      pop\n        /* \"contracts/PriceConverter.sol\":262:1150  function getPrice() internal view returns(uint256){... */\n      swap1\n      jump\t// out\n    tag_68:\n      dup3\n      dup1\n      sload\n      dup3\n      dup3\n      sstore\n      swap1\n      0x00\n      mstore\n      keccak256(0x00, 0x20)\n      swap1\n      dup2\n      add\n      swap3\n      dup3\n      iszero\n      tag_99\n      jumpi\n      swap2\n      0x20\n      mul\n      dup3\n      add\n    tag_100:\n      dup3\n      dup2\n      gt\n      iszero\n      tag_101\n      jumpi\n      dup3\n      mload\n      dup3\n      exp(0x0100, 0x00)\n      dup2\n      sload\n      dup2\n      0xffffffffffffffffffffffffffffffffffffffff\n      mul\n      not\n      and\n      swap1\n      dup4\n      0xffffffffffffffffffffffffffffffffffffffff\n      and\n      mul\n      or\n      swap1\n      sstore\n      pop\n      swap2\n      0x20\n      add\n      swap2\n      swap1\n      0x01\n      add\n      swap1\n      jump(tag_100)\n    tag_101:\n    tag_99:\n      pop\n      swap1\n      pop\n      tag_102\n      swap2\n      swap1\n      tag_103\n      jump\t// in\n    tag_102:\n      pop\n      swap1\n      jump\t// out\n    tag_103:\n    tag_104:\n      dup1\n      dup3\n      gt\n      iszero\n      tag_105\n      jumpi\n      0x00\n      dup2\n      0x00\n      swap1\n      sstore\n      pop\n      0x01\n      add\n      jump(tag_104)\n    tag_105:\n      pop\n      swap1\n      jump\t// out\n        /* \"#utility.yul\":7:84   */\n    tag_106:\n        /* \"#utility.yul\":44:51   */\n      0x00\n        /* \"#utility.yul\":73:78   */\n      dup2\n        /* \"#utility.yul\":62:78   */\n      swap1\n      pop\n        /* \"#utility.yul\":7:84   */\n      swap2\n      swap1\n      pop\n      jump\t// out\n        /* \"#utility.yul\":90:208   */\n    tag_107:\n        /* \"#utility.yul\":177:201   */\n      tag_140\n        /* \"#utility.yul\":195:200   */\n      dup2\n        /* \"#utility.yul\":177:201   */\n      tag_106\n      jump\t// in\n    tag_140:\n        /* \"#utility.yul\":172:175   */\n      dup3\n        /* \"#utility.yul\":165:202   */\n      mstore\n        /* \"#utility.yul\":90:208   */\n      pop\n      pop\n      jump\t// out\n        /* \"#utility.yul\":214:436   */\n    tag_20:\n        /* \"#utility.yul\":307:311   */\n      0x00\n        /* \"#utility.yul\":345:347   */\n      0x20\n        /* \"#utility.yul\":334:343   */\n      dup3\n        /* \"#utility.yul\":330:348   */\n      add\n        /* \"#utility.yul\":322:348   */\n      swap1\n      pop\n        /* \"#utility.yul\":358:429   */\n      tag_142\n        /* \"#utility.yul\":426:427   */\n      0x00\n        /* \"#utility.yul\":415:424   */\n      dup4\n        /* \"#utility.yul\":411:428   */\n      add\n        /* \"#utility.yul\":402:408   */\n      dup5\n        /* \"#utility.yul\":358:429   */\n      tag_107\n      jump\t// in\n    tag_142:\n        /* \"#utility.yul\":214:436   */\n      swap3\n      swap2\n      pop\n      pop\n      jump\t// out\n        /* \"#utility.yul\":523:640   */\n    tag_109:\n        /* \"#utility.yul\":632:633   */\n      0x00\n        /* \"#utility.yul\":629:630   */\n      dup1\n        /* \"#utility.yul\":622:634   */\n      revert\n        /* \"#utility.yul\":769:895   */\n    tag_111:\n        /* \"#utility.yul\":806:813   */\n      0x00\n        /* \"#utility.yul\":846:888   */\n      0xffffffffffffffffffffffffffffffffffffffff\n        /* \"#utility.yul\":839:844   */\n      dup3\n        /* \"#utility.yul\":835:889   */\n      and\n        /* \"#utility.yul\":824:889   */\n      swap1\n      pop\n        /* \"#utility.yul\":769:895   */\n      swap2\n      swap1\n      pop\n      jump\t// out\n        /* \"#utility.yul\":901:997   */\n    tag_112:\n        /* \"#utility.yul\":938:945   */\n      0x00\n        /* \"#utility.yul\":967:991   */\n      tag_148\n        /* \"#utility.yul\":985:990   */\n      dup3\n        /* \"#utility.yul\":967:991   */\n      tag_111\n      jump\t// in\n    tag_148:\n        /* \"#utility.yul\":956:991   */\n      swap1\n      pop\n        /* \"#utility.yul\":901:997   */\n      swap2\n      swap1\n      pop\n      jump\t// out\n        /* \"#utility.yul\":1003:1125   */\n    tag_113:\n        /* \"#utility.yul\":1076:1100   */\n      tag_150\n        /* \"#utility.yul\":1094:1099   */\n      dup2\n        /* \"#utility.yul\":1076:1100   */\n      tag_112\n      jump\t// in\n    tag_150:\n        /* \"#utility.yul\":1069:1074   */\n      dup2\n        /* \"#utility.yul\":1066:1101   */\n      eq\n        /* \"#utility.yul\":1056:1119   */\n      tag_151\n      jumpi\n        /* \"#utility.yul\":1115:1116   */\n      0x00\n        /* \"#utility.yul\":1112:1113   */\n      dup1\n        /* \"#utility.yul\":1105:1117   */\n      revert\n        /* \"#utility.yul\":1056:1119   */\n    tag_151:\n        /* \"#utility.yul\":1003:1125   */\n      pop\n      jump\t// out\n        /* \"#utility.yul\":1131:1270   */\n    tag_114:\n        /* \"#utility.yul\":1177:1182   */\n      0x00\n        /* \"#utility.yul\":1215:1221   */\n      dup2\n        /* \"#utility.yul\":1202:1222   */\n      calldataload\n        /* \"#utility.yul\":1193:1222   */\n      swap1\n      pop\n        /* \"#utility.yul\":1231:1264   */\n      tag_153\n        /* \"#utility.yul\":1258:1263   */\n      dup2\n        /* \"#utility.yul\":1231:1264   */\n      tag_113\n      jump\t// in\n    tag_153:\n        /* \"#utility.yul\":1131:1270   */\n      swap3\n      swap2\n      pop\n      pop\n      jump\t// out\n        /* \"#utility.yul\":1276:1605   */\n    tag_27:\n        /* \"#utility.yul\":1335:1341   */\n      0x00\n        /* \"#utility.yul\":1384:1386   */\n      0x20\n        /* \"#utility.yul\":1372:1381   */\n      dup3\n        /* \"#utility.yul\":1363:1370   */\n      dup5\n        /* \"#utility.yul\":1359:1382   */\n      sub\n        /* \"#utility.yul\":1355:1387   */\n      slt\n        /* \"#utility.yul\":1352:1471   */\n      iszero\n      tag_155\n      jumpi\n        /* \"#utility.yul\":1390:1469   */\n      tag_156\n      tag_109\n      jump\t// in\n    tag_156:\n        /* \"#utility.yul\":1352:1471   */\n    tag_155:\n        /* \"#utility.yul\":1510:1511   */\n      0x00\n        /* \"#utility.yul\":1535:1588   */\n      tag_157\n        /* \"#utility.yul\":1580:1587   */\n      dup5\n        /* \"#utility.yul\":1571:1577   */\n      dup3\n        /* \"#utility.yul\":1560:1569   */\n      dup6\n        /* \"#utility.yul\":1556:1578   */\n      add\n        /* \"#utility.yul\":1535:1588   */\n      tag_114\n      jump\t// in\n    tag_157:\n        /* \"#utility.yul\":1525:1588   */\n      swap2\n      pop\n        /* \"#utility.yul\":1481:1598   */\n      pop\n        /* \"#utility.yul\":1276:1605   */\n      swap3\n      swap2\n      pop\n      pop\n      jump\t// out\n        /* \"#utility.yul\":1611:1729   */\n    tag_115:\n        /* \"#utility.yul\":1698:1722   */\n      tag_159\n        /* \"#utility.yul\":1716:1721   */\n      dup2\n        /* \"#utility.yul\":1698:1722   */\n      tag_112\n      jump\t// in\n    tag_159:\n        /* \"#utility.yul\":1693:1696   */\n      dup3\n        /* \"#utility.yul\":1686:1723   */\n      mstore\n        /* \"#utility.yul\":1611:1729   */\n      pop\n      pop\n      jump\t// out\n        /* \"#utility.yul\":1735:1957   */\n    tag_34:\n        /* \"#utility.yul\":1828:1832   */\n      0x00\n        /* \"#utility.yul\":1866:1868   */\n      0x20\n        /* \"#utility.yul\":1855:1864   */\n      dup3\n        /* \"#utility.yul\":1851:1869   */\n      add\n        /* \"#utility.yul\":1843:1869   */\n      swap1\n      pop\n        /* \"#utility.yul\":1879:1950   */\n      tag_161\n        /* \"#utility.yul\":1947:1948   */\n      0x00\n        /* \"#utility.yul\":1936:1945   */\n      dup4\n        /* \"#utility.yul\":1932:1949   */\n      add\n        /* \"#utility.yul\":1923:1929   */\n      dup5\n        /* \"#utility.yul\":1879:1950   */\n      tag_115\n      jump\t// in\n    tag_161:\n        /* \"#utility.yul\":1735:1957   */\n      swap3\n      swap2\n      pop\n      pop\n      jump\t// out\n        /* \"#utility.yul\":1963:2085   */\n    tag_116:\n        /* \"#utility.yul\":2036:2060   */\n      tag_163\n        /* \"#utility.yul\":2054:2059   */\n      dup2\n        /* \"#utility.yul\":2036:2060   */\n      tag_106\n      jump\t// in\n    tag_163:\n        /* \"#utility.yul\":2029:2034   */\n      dup2\n        /* \"#utility.yul\":2026:2061   */\n      eq\n        /* \"#utility.yul\":2016:2079   */\n      tag_164\n      jumpi\n        /* \"#utility.yul\":2075:2076   */\n      0x00\n        /* \"#utility.yul\":2072:2073   */\n      dup1\n        /* \"#utility.yul\":2065:2077   */\n      revert\n        /* \"#utility.yul\":2016:2079   */\n    tag_164:\n        /* \"#utility.yul\":1963:2085   */\n      pop\n      jump\t// out\n        /* \"#utility.yul\":2091:2230   */\n    tag_117:\n        /* \"#utility.yul\":2137:2142   */\n      0x00\n        /* \"#utility.yul\":2175:2181   */\n      dup2\n        /* \"#utility.yul\":2162:2182   */\n      calldataload\n        /* \"#utility.yul\":2153:2182   */\n      swap1\n      pop\n        /* \"#utility.yul\":2191:2224   */\n      tag_166\n        /* \"#utility.yul\":2218:2223   */\n      dup2\n        /* \"#utility.yul\":2191:2224   */\n      tag_116\n      jump\t// in\n    tag_166:\n        /* \"#utility.yul\":2091:2230   */\n      swap3\n      swap2\n      pop\n      pop\n      jump\t// out\n        /* \"#utility.yul\":2236:2565   */\n    tag_39:\n        /* \"#utility.yul\":2295:2301   */\n      0x00\n        /* \"#utility.yul\":2344:2346   */\n      0x20\n        /* \"#utility.yul\":2332:2341   */\n      dup3\n        /* \"#utility.yul\":2323:2330   */\n      dup5\n        /* \"#utility.yul\":2319:2342   */\n      sub\n        /* \"#utility.yul\":2315:2347   */\n      slt\n        /* \"#utility.yul\":2312:2431   */\n      iszero\n      tag_168\n      jumpi\n        /* \"#utility.yul\":2350:2429   */\n      tag_169\n      tag_109\n      jump\t// in\n    tag_169:\n        /* \"#utility.yul\":2312:2431   */\n    tag_168:\n        /* \"#utility.yul\":2470:2471   */\n      0x00\n        /* \"#utility.yul\":2495:2548   */\n      tag_170\n        /* \"#utility.yul\":2540:2547   */\n      dup5\n        /* \"#utility.yul\":2531:2537   */\n      dup3\n        /* \"#utility.yul\":2520:2529   */\n      dup6\n        /* \"#utility.yul\":2516:2538   */\n      add\n        /* \"#utility.yul\":2495:2548   */\n      tag_117\n      jump\t// in\n    tag_170:\n        /* \"#utility.yul\":2485:2548   */\n      swap2\n      pop\n        /* \"#utility.yul\":2441:2558   */\n      pop\n        /* \"#utility.yul\":2236:2565   */\n      swap3\n      swap2\n      pop\n      pop\n      jump\t// out\n        /* \"#utility.yul\":2571:2740   */\n    tag_118:\n        /* \"#utility.yul\":2655:2666   */\n      0x00\n        /* \"#utility.yul\":2689:2695   */\n      dup3\n        /* \"#utility.yul\":2684:2687   */\n      dup3\n        /* \"#utility.yul\":2677:2696   */\n      mstore\n        /* \"#utility.yul\":2729:2733   */\n      0x20\n        /* \"#utility.yul\":2724:2727   */\n      dup3\n        /* \"#utility.yul\":2720:2734   */\n      add\n        /* \"#utility.yul\":2705:2734   */\n      swap1\n      pop\n        /* \"#utility.yul\":2571:2740   */\n      swap3\n      swap2\n      pop\n      pop\n      jump\t// out\n        /* \"#utility.yul\":2746:2917   */\n    tag_119:\n        /* \"#utility.yul\":2886:2909   */\n      0x4469646e742073656e6420656e6f756768204554480000000000000000000000\n        /* \"#utility.yul\":2882:2883   */\n      0x00\n        /* \"#utility.yul\":2874:2880   */\n      dup3\n        /* \"#utility.yul\":2870:2884   */\n      add\n        /* \"#utility.yul\":2863:2910   */\n      mstore\n        /* \"#utility.yul\":2746:2917   */\n      pop\n      jump\t// out\n        /* \"#utility.yul\":2923:3289   */\n    tag_120:\n        /* \"#utility.yul\":3065:3068   */\n      0x00\n        /* \"#utility.yul\":3086:3153   */\n      tag_174\n        /* \"#utility.yul\":3150:3152   */\n      0x15\n        /* \"#utility.yul\":3145:3148   */\n      dup4\n        /* \"#utility.yul\":3086:3153   */\n      tag_118\n      jump\t// in\n    tag_174:\n        /* \"#utility.yul\":3079:3153   */\n      swap2\n      pop\n        /* \"#utility.yul\":3162:3255   */\n      tag_175\n        /* \"#utility.yul\":3251:3254   */\n      dup3\n        /* \"#utility.yul\":3162:3255   */\n      tag_119\n      jump\t// in\n    tag_175:\n        /* \"#utility.yul\":3280:3282   */\n      0x20\n        /* \"#utility.yul\":3275:3278   */\n      dup3\n        /* \"#utility.yul\":3271:3283   */\n      add\n        /* \"#utility.yul\":3264:3283   */\n      swap1\n      pop\n        /* \"#utility.yul\":2923:3289   */\n      swap2\n      swap1\n      pop\n      jump\t// out\n        /* \"#utility.yul\":3295:3714   */\n    tag_47:\n        /* \"#utility.yul\":3461:3465   */\n      0x00\n        /* \"#utility.yul\":3499:3501   */\n      0x20\n        /* \"#utility.yul\":3488:3497   */\n      dup3\n        /* \"#utility.yul\":3484:3502   */\n      add\n        /* \"#utility.yul\":3476:3502   */\n      swap1\n      pop\n        /* \"#utility.yul\":3548:3557   */\n      dup2\n        /* \"#utility.yul\":3542:3546   */\n      dup2\n        /* \"#utility.yul\":3538:3558   */\n      sub\n        /* \"#utility.yul\":3534:3535   */\n      0x00\n        /* \"#utility.yul\":3523:3532   */\n      dup4\n        /* \"#utility.yul\":3519:3536   */\n      add\n        /* \"#utility.yul\":3512:3559   */\n      mstore\n        /* \"#utility.yul\":3576:3707   */\n      tag_177\n        /* \"#utility.yul\":3702:3706   */\n      dup2\n        /* \"#utility.yul\":3576:3707   */\n      tag_120\n      jump\t// in\n    tag_177:\n        /* \"#utility.yul\":3568:3707   */\n      swap1\n      pop\n        /* \"#utility.yul\":3295:3714   */\n      swap2\n      swap1\n      pop\n      jump\t// out\n        /* \"#utility.yul\":3720:3900   */\n    tag_121:\n        /* \"#utility.yul\":3768:3845   */\n      0x4e487b7100000000000000000000000000000000000000000000000000000000\n        /* \"#utility.yul\":3765:3766   */\n      0x00\n        /* \"#utility.yul\":3758:3846   */\n      mstore\n        /* \"#utility.yul\":3865:3869   */\n      0x11\n        /* \"#utility.yul\":3862:3863   */\n      0x04\n        /* \"#utility.yul\":3855:3870   */\n      mstore\n        /* \"#utility.yul\":3889:3893   */\n      0x24\n        /* \"#utility.yul\":3886:3887   */\n      0x00\n        /* \"#utility.yul\":3879:3894   */\n      revert\n        /* \"#utility.yul\":3906:4097   */\n    tag_50:\n        /* \"#utility.yul\":3946:3949   */\n      0x00\n        /* \"#utility.yul\":3965:3985   */\n      tag_180\n        /* \"#utility.yul\":3983:3984   */\n      dup3\n        /* \"#utility.yul\":3965:3985   */\n      tag_106\n      jump\t// in\n    tag_180:\n        /* \"#utility.yul\":3960:3985   */\n      swap2\n      pop\n        /* \"#utility.yul\":3999:4019   */\n      tag_181\n        /* \"#utility.yul\":4017:4018   */\n      dup4\n        /* \"#utility.yul\":3999:4019   */\n      tag_106\n      jump\t// in\n    tag_181:\n        /* \"#utility.yul\":3994:4019   */\n      swap3\n      pop\n        /* \"#utility.yul\":4042:4043   */\n      dup3\n        /* \"#utility.yul\":4039:4040   */\n      dup3\n        /* \"#utility.yul\":4035:4044   */\n      add\n        /* \"#utility.yul\":4028:4044   */\n      swap1\n      pop\n        /* \"#utility.yul\":4063:4066   */\n      dup1\n        /* \"#utility.yul\":4060:4061   */\n      dup3\n        /* \"#utility.yul\":4057:4067   */\n      gt\n        /* \"#utility.yul\":4054:4090   */\n      iszero\n      tag_182\n      jumpi\n        /* \"#utility.yul\":4070:4088   */\n      tag_183\n      tag_121\n      jump\t// in\n    tag_183:\n        /* \"#utility.yul\":4054:4090   */\n    tag_182:\n        /* \"#utility.yul\":3906:4097   */\n      swap3\n      swap2\n      pop\n      pop\n      jump\t// out\n        /* \"#utility.yul\":4103:4283   */\n    tag_59:\n        /* \"#utility.yul\":4151:4228   */\n      0x4e487b7100000000000000000000000000000000000000000000000000000000\n        /* \"#utility.yul\":4148:4149   */\n      0x00\n        /* \"#utility.yul\":4141:4229   */\n      mstore\n        /* \"#utility.yul\":4248:4252   */\n      0x32\n        /* \"#utility.yul\":4245:4246   */\n      0x04\n        /* \"#utility.yul\":4238:4253   */\n      mstore\n        /* \"#utility.yul\":4272:4276   */\n      0x24\n        /* \"#utility.yul\":4269:4270   */\n      0x00\n        /* \"#utility.yul\":4262:4277   */\n      revert\n        /* \"#utility.yul\":4289:4522   */\n    tag_62:\n        /* \"#utility.yul\":4328:4331   */\n      0x00\n        /* \"#utility.yul\":4351:4375   */\n      tag_186\n        /* \"#utility.yul\":4369:4374   */\n      dup3\n        /* \"#utility.yul\":4351:4375   */\n      tag_106\n      jump\t// in\n    tag_186:\n        /* \"#utility.yul\":4342:4375   */\n      swap2\n      pop\n        /* \"#utility.yul\":4397:4463   */\n      0xffffffffffffffffffffffffffffffffffffffffffffffffffffffffffffffff\n        /* \"#utility.yul\":4390:4395   */\n      dup3\n        /* \"#utility.yul\":4387:4464   */\n      sub\n        /* \"#utility.yul\":4384:4487   */\n      tag_187\n      jumpi\n        /* \"#utility.yul\":4467:4485   */\n      tag_188\n      tag_121\n      jump\t// in\n    tag_188:\n        /* \"#utility.yul\":4384:4487   */\n    tag_187:\n        /* \"#utility.yul\":4514:4515   */\n      0x01\n        /* \"#utility.yul\":4507:4512   */\n      dup3\n        /* \"#utility.yul\":4503:4516   */\n      add\n        /* \"#utility.yul\":4496:4516   */\n      swap1\n      pop\n        /* \"#utility.yul\":4289:4522   */\n      swap2\n      swap1\n      pop\n      jump\t// out\n        /* \"#utility.yul\":4528:4708   */\n    tag_65:\n        /* \"#utility.yul\":4576:4653   */\n      0x4e487b7100000000000000000000000000000000000000000000000000000000\n        /* \"#utility.yul\":4573:4574   */\n      0x00\n        /* \"#utility.yul\":4566:4654   */\n      mstore\n        /* \"#utility.yul\":4673:4677   */\n      0x41\n        /* \"#utility.yul\":4670:4671   */\n      0x04\n        /* \"#utility.yul\":4663:4678   */\n      mstore\n        /* \"#utility.yul\":4697:4701   */\n      0x24\n        /* \"#utility.yul\":4694:4695   */\n      0x00\n        /* \"#utility.yul\":4687:4702   */\n      revert\n        /* \"#utility.yul\":4714:4875   */\n    tag_122:\n        /* \"#utility.yul\":4854:4867   */\n      0x53656e64206661696c6564000000000000000000000000000000000000000000\n        /* \"#utility.yul\":4850:4851   */\n      0x00\n        /* \"#utility.yul\":4842:4848   */\n      dup3\n        /* \"#utility.yul\":4838:4852   */\n      add\n        /* \"#utility.yul\":4831:4868   */\n      mstore\n        /* \"#utility.yul\":4714:4875   */\n      pop\n      jump\t// out\n        /* \"#utility.yul\":4881:5247   */\n    tag_123:\n        /* \"#utility.yul\":5023:5026   */\n      0x00\n        /* \"#utility.yul\":5044:5111   */\n      tag_192\n        /* \"#utility.yul\":5108:5110   */\n      0x0b\n        /* \"#utility.yul\":5103:5106   */\n      dup4\n        /* \"#utility.yul\":5044:5111   */\n      tag_118\n      jump\t// in\n    tag_192:\n        /* \"#utility.yul\":5037:5111   */\n      swap2\n      pop\n        /* \"#utility.yul\":5120:5213   */\n      tag_193\n        /* \"#utility.yul\":5209:5212   */\n      dup3\n        /* \"#utility.yul\":5120:5213   */\n      tag_122\n      jump\t// in\n    tag_193:\n        /* \"#utility.yul\":5238:5240   */\n      0x20\n        /* \"#utility.yul\":5233:5236   */\n      dup3\n        /* \"#utility.yul\":5229:5241   */\n      add\n        /* \"#utility.yul\":5222:5241   */\n      swap1\n      pop\n        /* \"#utility.yul\":4881:5247   */\n      swap2\n      swap1\n      pop\n      jump\t// out\n        /* \"#utility.yul\":5253:5672   */\n    tag_74:\n        /* \"#utility.yul\":5419:5423   */\n      0x00\n        /* \"#utility.yul\":5457:5459   */\n      0x20\n        /* \"#utility.yul\":5446:5455   */\n      dup3\n        /* \"#utility.yul\":5442:5460   */\n      add\n        /* \"#utility.yul\":5434:5460   */\n      swap1\n      pop\n        /* \"#utility.yul\":5506:5515   */\n      dup2\n        /* \"#utility.yul\":5500:5504   */\n      dup2\n        /* \"#utility.yul\":5496:5516   */\n      sub\n        /* \"#utility.yul\":5492:5493   */\n      0x00\n        /* \"#utility.yul\":5481:5490   */\n      dup4\n        /* \"#utility.yul\":5477:5494   */\n      add\n        /* \"#utility.yul\":5470:5517   */\n      mstore\n        /* \"#utility.yul\":5534:5665   */\n      tag_195\n        /* \"#utility.yul\":5660:5664   */\n      dup2\n        /* \"#utility.yul\":5534:5665   */\n      tag_123\n      jump\t// in\n    tag_195:\n        /* \"#utility.yul\":5526:5665   */\n      swap1\n      pop\n        /* \"#utility.yul\":5253:5672   */\n      swap2\n      swap1\n      pop\n      jump\t// out\n        /* \"#utility.yul\":5678:5825   */\n    tag_124:\n        /* \"#utility.yul\":5779:5790   */\n      0x00\n        /* \"#utility.yul\":5816:5819   */\n      dup2\n        /* \"#utility.yul\":5801:5819   */\n      swap1\n      pop\n        /* \"#utility.yul\":5678:5825   */\n      swap3\n      swap2\n      pop\n      pop\n      jump\t// out\n        /* \"#utility.yul\":5831:5945   */\n    tag_125:\n      pop\n      jump\t// out\n        /* \"#utility.yul\":5951:6349   */\n    tag_126:\n        /* \"#utility.yul\":6110:6113   */\n      0x00\n        /* \"#utility.yul\":6131:6214   */\n      tag_199\n        /* \"#utility.yul\":6212:6213   */\n      0x00\n        /* \"#utility.yul\":6207:6210   */\n      dup4\n        /* \"#utility.yul\":6131:6214   */\n      tag_124\n      jump\t// in\n    tag_199:\n        /* \"#utility.yul\":6124:6214   */\n      swap2\n      pop\n        /* \"#utility.yul\":6223:6316   */\n      tag_200\n        /* \"#utility.yul\":6312:6315   */\n      dup3\n        /* \"#utility.yul\":6223:6316   */\n      tag_125\n      jump\t// in\n    tag_200:\n        /* \"#utility.yul\":6341:6342   */\n      0x00\n        /* \"#utility.yul\":6336:6339   */\n      dup3\n        /* \"#utility.yul\":6332:6343   */\n      add\n        /* \"#utility.yul\":6325:6343   */\n      swap1\n      pop\n        /* \"#utility.yul\":5951:6349   */\n      swap2\n      swap1\n      pop\n      jump\t// out\n        /* \"#utility.yul\":6355:6734   */\n    tag_76:\n        /* \"#utility.yul\":6539:6542   */\n      0x00\n        /* \"#utility.yul\":6561:6708   */\n      tag_202\n        /* \"#utility.yul\":6704:6707   */\n      dup3\n        /* \"#utility.yul\":6561:6708   */\n      tag_126\n      jump\t// in\n    tag_202:\n        /* \"#utility.yul\":6554:6708   */\n      swap2\n      pop\n        /* \"#utility.yul\":6725:6728   */\n      dup2\n        /* \"#utility.yul\":6718:6728   */\n      swap1\n      pop\n        /* \"#utility.yul\":6355:6734   */\n      swap2\n      swap1\n      pop\n      jump\t// out\n        /* \"#utility.yul\":6740:6901   */\n    tag_127:\n        /* \"#utility.yul\":6880:6893   */\n      0x43616c6c206661696c6564000000000000000000000000000000000000000000\n        /* \"#utility.yul\":6876:6877   */\n      0x00\n        /* \"#utility.yul\":6868:6874   */\n      dup3\n        /* \"#utility.yul\":6864:6878   */\n      add\n        /* \"#utility.yul\":6857:6894   */\n      mstore\n        /* \"#utility.yul\":6740:6901   */\n      pop\n      jump\t// out\n        /* \"#utility.yul\":6907:7273   */\n    tag_128:\n        /* \"#utility.yul\":7049:7052   */\n      0x00\n        /* \"#utility.yul\":7070:7137   */\n      tag_205\n        /* \"#utility.yul\":7134:7136   */\n      0x0b\n        /* \"#utility.yul\":7129:7132   */\n      dup4\n        /* \"#utility.yul\":7070:7137   */\n      tag_118\n      jump\t// in\n    tag_205:\n        /* \"#utility.yul\":7063:7137   */\n      swap2\n      pop\n        /* \"#utility.yul\":7146:7239   */\n      tag_206\n        /* \"#utility.yul\":7235:7238   */\n      dup3\n        /* \"#utility.yul\":7146:7239   */\n      tag_127\n      jump\t// in\n    tag_206:\n        /* \"#utility.yul\":7264:7266   */\n      0x20\n        /* \"#utility.yul\":7259:7262   */\n      dup3\n        /* \"#utility.yul\":7255:7267   */\n      add\n        /* \"#utility.yul\":7248:7267   */\n      swap1\n      pop\n        /* \"#utility.yul\":6907:7273   */\n      swap2\n      swap1\n      pop\n      jump\t// out\n        /* \"#utility.yul\":7279:7698   */\n    tag_82:\n        /* \"#utility.yul\":7445:7449   */\n      0x00\n        /* \"#utility.yul\":7483:7485   */\n      0x20\n        /* \"#utility.yul\":7472:7481   */\n      dup3\n        /* \"#utility.yul\":7468:7486   */\n      add\n        /* \"#utility.yul\":7460:7486   */\n      swap1\n      pop\n        /* \"#utility.yul\":7532:7541   */\n      dup2\n        /* \"#utility.yul\":7526:7530   */\n      dup2\n        /* \"#utility.yul\":7522:7542   */\n      sub\n        /* \"#utility.yul\":7518:7519   */\n      0x00\n        /* \"#utility.yul\":7507:7516   */\n      dup4\n        /* \"#utility.yul\":7503:7520   */\n      add\n        /* \"#utility.yul\":7496:7543   */\n      mstore\n        /* \"#utility.yul\":7560:7691   */\n      tag_208\n        /* \"#utility.yul\":7686:7690   */\n      dup2\n        /* \"#utility.yul\":7560:7691   */\n      tag_128\n      jump\t// in\n    tag_208:\n        /* \"#utility.yul\":7552:7691   */\n      swap1\n      pop\n        /* \"#utility.yul\":7279:7698   */\n      swap2\n      swap1\n      pop\n      jump\t// out\n        /* \"#utility.yul\":7704:8114   */\n    tag_89:\n        /* \"#utility.yul\":7744:7751   */\n      0x00\n        /* \"#utility.yul\":7767:7787   */\n      tag_210\n        /* \"#utility.yul\":7785:7786   */\n      dup3\n        /* \"#utility.yul\":7767:7787   */\n      tag_106\n      jump\t// in\n    tag_210:\n        /* \"#utility.yul\":7762:7787   */\n      swap2\n      pop\n        /* \"#utility.yul\":7801:7821   */\n      tag_211\n        /* \"#utility.yul\":7819:7820   */\n      dup4\n        /* \"#utility.yul\":7801:7821   */\n      tag_106\n      jump\t// in\n    tag_211:\n        /* \"#utility.yul\":7796:7821   */\n      swap3\n      pop\n        /* \"#utility.yul\":7856:7857   */\n      dup3\n        /* \"#utility.yul\":7853:7854   */\n      dup3\n        /* \"#utility.yul\":7849:7858   */\n      mul\n        /* \"#utility.yul\":7878:7908   */\n      tag_212\n        /* \"#utility.yul\":7896:7907   */\n      dup2\n        /* \"#utility.yul\":7878:7908   */\n      tag_106\n      jump\t// in\n    tag_212:\n        /* \"#utility.yul\":7867:7908   */\n      swap2\n      pop\n        /* \"#utility.yul\":8057:8058   */\n      dup3\n        /* \"#utility.yul\":8048:8055   */\n      dup3\n        /* \"#utility.yul\":8044:8059   */\n      div\n        /* \"#utility.yul\":8041:8042   */\n      dup5\n        /* \"#utility.yul\":8038:8060   */\n      eq\n        /* \"#utility.yul\":8018:8019   */\n      dup4\n        /* \"#utility.yul\":8011:8020   */\n      iszero\n        /* \"#utility.yul\":7991:8074   */\n      or\n        /* \"#utility.yul\":7968:8107   */\n      tag_213\n      jumpi\n        /* \"#utility.yul\":8087:8105   */\n      tag_214\n      tag_121\n      jump\t// in\n    tag_214:\n        /* \"#utility.yul\":7968:8107   */\n    tag_213:\n        /* \"#utility.yul\":7752:8114   */\n      pop\n        /* \"#utility.yul\":7704:8114   */\n      swap3\n      swap2\n      pop\n      pop\n      jump\t// out\n        /* \"#utility.yul\":8120:8300   */\n    tag_129:\n        /* \"#utility.yul\":8168:8245   */\n      0x4e487b7100000000000000000000000000000000000000000000000000000000\n        /* \"#utility.yul\":8165:8166   */\n      0x00\n        /* \"#utility.yul\":8158:8246   */\n      mstore\n        /* \"#utility.yul\":8265:8269   */\n      0x12\n        /* \"#utility.yul\":8262:8263   */\n      0x04\n        /* \"#utility.yul\":8255:8270   */\n      mstore\n        /* \"#utility.yul\":8289:8293   */\n      0x24\n        /* \"#utility.yul\":8286:8287   */\n      0x00\n        /* \"#utility.yul\":8279:8294   */\n      revert\n        /* \"#utility.yul\":8306:8491   */\n    tag_91:\n        /* \"#utility.yul\":8346:8347   */\n      0x00\n        /* \"#utility.yul\":8363:8383   */\n      tag_217\n        /* \"#utility.yul\":8381:8382   */\n      dup3\n        /* \"#utility.yul\":8363:8383   */\n      tag_106\n      jump\t// in\n    tag_217:\n        /* \"#utility.yul\":8358:8383   */\n      swap2\n      pop\n        /* \"#utility.yul\":8397:8417   */\n      tag_218\n        /* \"#utility.yul\":8415:8416   */\n      dup4\n        /* \"#utility.yul\":8397:8417   */\n      tag_106\n      jump\t// in\n    tag_218:\n        /* \"#utility.yul\":8392:8417   */\n      swap3\n      pop\n        /* \"#utility.yul\":8436:8437   */\n      dup3\n        /* \"#utility.yul\":8426:8461   */\n      tag_219\n      jumpi\n        /* \"#utility.yul\":8441:8459   */\n      tag_220\n      tag_129\n      jump\t// in\n    tag_220:\n        /* \"#utility.yul\":8426:8461   */\n    tag_219:\n        /* \"#utility.yul\":8483:8484   */\n      dup3\n        /* \"#utility.yul\":8480:8481   */\n      dup3\n        /* \"#utility.yul\":8476:8485   */\n      div\n        /* \"#utility.yul\":8471:8485   */\n      swap1\n      pop\n        /* \"#utility.yul\":8306:8491   */\n      swap3\n      swap2\n      pop\n      pop\n      jump\t// out\n        /* \"#utility.yul\":8497:8602   */\n    tag_130:\n        /* \"#utility.yul\":8533:8540   */\n      0x00\n        /* \"#utility.yul\":8573:8595   */\n      0xffffffffffffffffffff\n        /* \"#utility.yul\":8566:8571   */\n      dup3\n        /* \"#utility.yul\":8562:8596   */\n      and\n        /* \"#utility.yul\":8551:8596   */\n      swap1\n      pop\n        /* \"#utility.yul\":8497:8602   */\n      swap2\n      swap1\n      pop\n      jump\t// out\n        /* \"#utility.yul\":8608:8728   */\n    tag_131:\n        /* \"#utility.yul\":8680:8703   */\n      tag_223\n        /* \"#utility.yul\":8697:8702   */\n      dup2\n        /* \"#utility.yul\":8680:8703   */\n      tag_130\n      jump\t// in\n    tag_223:\n        /* \"#utility.yul\":8673:8678   */\n      dup2\n        /* \"#utility.yul\":8670:8704   */\n      eq\n        /* \"#utility.yul\":8660:8722   */\n      tag_224\n      jumpi\n        /* \"#utility.yul\":8718:8719   */\n      0x00\n        /* \"#utility.yul\":8715:8716   */\n      dup1\n        /* \"#utility.yul\":8708:8720   */\n      revert\n        /* \"#utility.yul\":8660:8722   */\n    tag_224:\n        /* \"#utility.yul\":8608:8728   */\n      pop\n      jump\t// out\n        /* \"#utility.yul\":8734:8875   */\n    tag_132:\n        /* \"#utility.yul\":8790:8795   */\n      0x00\n        /* \"#utility.yul\":8821:8827   */\n      dup2\n        /* \"#utility.yul\":8815:8828   */\n      mload\n        /* \"#utility.yul\":8806:8828   */\n      swap1\n      pop\n        /* \"#utility.yul\":8837:8869   */\n      tag_226\n        /* \"#utility.yul\":8863:8868   */\n      dup2\n        /* \"#utility.yul\":8837:8869   */\n      tag_131\n      jump\t// in\n    tag_226:\n        /* \"#utility.yul\":8734:8875   */\n      swap3\n      swap2\n      pop\n      pop\n      jump\t// out\n        /* \"#utility.yul\":8881:8957   */\n    tag_133:\n        /* \"#utility.yul\":8917:8924   */\n      0x00\n        /* \"#utility.yul\":8946:8951   */\n      dup2\n        /* \"#utility.yul\":8935:8951   */\n      swap1\n      pop\n        /* \"#utility.yul\":8881:8957   */\n      swap2\n      swap1\n      pop\n      jump\t// out\n        /* \"#utility.yul\":8963:9083   */\n    tag_134:\n        /* \"#utility.yul\":9035:9058   */\n      tag_229\n        /* \"#utility.yul\":9052:9057   */\n      dup2\n        /* \"#utility.yul\":9035:9058   */\n      tag_133\n      jump\t// in\n    tag_229:\n        /* \"#utility.yul\":9028:9033   */\n      dup2\n        /* \"#utility.yul\":9025:9059   */\n      eq\n        /* \"#utility.yul\":9015:9077   */\n      tag_230\n      jumpi\n        /* \"#utility.yul\":9073:9074   */\n      0x00\n        /* \"#utility.yul\":9070:9071   */\n      dup1\n        /* \"#utility.yul\":9063:9075   */\n      revert\n        /* \"#utility.yul\":9015:9077   */\n    tag_230:\n        /* \"#utility.yul\":8963:9083   */\n      pop\n      jump\t// out\n        /* \"#utility.yul\":9089:9230   */\n    tag_135:\n        /* \"#utility.yul\":9145:9150   */\n      0x00\n        /* \"#utility.yul\":9176:9182   */\n      dup2\n        /* \"#utility.yul\":9170:9183   */\n      mload\n        /* \"#utility.yul\":9161:9183   */\n      swap1\n      pop\n        /* \"#utility.yul\":9192:9224   */\n      tag_232\n        /* \"#utility.yul\":9218:9223   */\n      dup2\n        /* \"#utility.yul\":9192:9224   */\n      tag_134\n      jump\t// in\n    tag_232:\n        /* \"#utility.yul\":9089:9230   */\n      swap3\n      swap2\n      pop\n      pop\n      jump\t// out\n        /* \"#utility.yul\":9236:9379   */\n    tag_136:\n        /* \"#utility.yul\":9293:9298   */\n      0x00\n        /* \"#utility.yul\":9324:9330   */\n      dup2\n        /* \"#utility.yul\":9318:9331   */\n      mload\n        /* \"#utility.yul\":9309:9331   */\n      swap1\n      pop\n        /* \"#utility.yul\":9340:9373   */\n      tag_234\n        /* \"#utility.yul\":9367:9372   */\n      dup2\n        /* \"#utility.yul\":9340:9373   */\n      tag_116\n      jump\t// in\n    tag_234:\n        /* \"#utility.yul\":9236:9379   */\n      swap3\n      swap2\n      pop\n      pop\n      jump\t// out\n        /* \"#utility.yul\":9385:10356   */\n    tag_96:\n        /* \"#utility.yul\":9488:9494   */\n      0x00\n        /* \"#utility.yul\":9496:9502   */\n      dup1\n        /* \"#utility.yul\":9504:9510   */\n      0x00\n        /* \"#utility.yul\":9512:9518   */\n      dup1\n        /* \"#utility.yul\":9520:9526   */\n      0x00\n        /* \"#utility.yul\":9569:9572   */\n      0xa0\n        /* \"#utility.yul\":9557:9566   */\n      dup7\n        /* \"#utility.yul\":9548:9555   */\n      dup9\n        /* \"#utility.yul\":9544:9567   */\n      sub\n        /* \"#utility.yul\":9540:9573   */\n      slt\n        /* \"#utility.yul\":9537:9657   */\n      iszero\n      tag_236\n      jumpi\n        /* \"#utility.yul\":9576:9655   */\n      tag_237\n      tag_109\n      jump\t// in\n    tag_237:\n        /* \"#utility.yul\":9537:9657   */\n    tag_236:\n        /* \"#utility.yul\":9696:9697   */\n      0x00\n        /* \"#utility.yul\":9721:9784   */\n      tag_238\n        /* \"#utility.yul\":9776:9783   */\n      dup9\n        /* \"#utility.yul\":9767:9773   */\n      dup3\n        /* \"#utility.yul\":9756:9765   */\n      dup10\n        /* \"#utility.yul\":9752:9774   */\n      add\n        /* \"#utility.yul\":9721:9784   */\n      tag_132\n      jump\t// in\n    tag_238:\n        /* \"#utility.yul\":9711:9784   */\n      swap6\n      pop\n        /* \"#utility.yul\":9667:9794   */\n      pop\n        /* \"#utility.yul\":9833:9835   */\n      0x20\n        /* \"#utility.yul\":9859:9922   */\n      tag_239\n        /* \"#utility.yul\":9914:9921   */\n      dup9\n        /* \"#utility.yul\":9905:9911   */\n      dup3\n        /* \"#utility.yul\":9894:9903   */\n      dup10\n        /* \"#utility.yul\":9890:9912   */\n      add\n        /* \"#utility.yul\":9859:9922   */\n      tag_135\n      jump\t// in\n    tag_239:\n        /* \"#utility.yul\":9849:9922   */\n      swap5\n      pop\n        /* \"#utility.yul\":9804:9932   */\n      pop\n        /* \"#utility.yul\":9971:9973   */\n      0x40\n        /* \"#utility.yul\":9997:10061   */\n      tag_240\n        /* \"#utility.yul\":10053:10060   */\n      dup9\n        /* \"#utility.yul\":10044:10050   */\n      dup3\n        /* \"#utility.yul\":10033:10042   */\n      dup10\n        /* \"#utility.yul\":10029:10051   */\n      add\n        /* \"#utility.yul\":9997:10061   */\n      tag_136\n      jump\t// in\n    tag_240:\n        /* \"#utility.yul\":9987:10061   */\n      swap4\n      pop\n        /* \"#utility.yul\":9942:10071   */\n      pop\n        /* \"#utility.yul\":10110:10112   */\n      0x60\n        /* \"#utility.yul\":10136:10200   */\n      tag_241\n        /* \"#utility.yul\":10192:10199   */\n      dup9\n        /* \"#utility.yul\":10183:10189   */\n      dup3\n        /* \"#utility.yul\":10172:10181   */\n      dup10\n        /* \"#utility.yul\":10168:10190   */\n      add\n        /* \"#utility.yul\":10136:10200   */\n      tag_136\n      jump\t// in\n    tag_241:\n        /* \"#utility.yul\":10126:10200   */\n      swap3\n      pop\n        /* \"#utility.yul\":10081:10210   */\n      pop\n        /* \"#utility.yul\":10249:10252   */\n      0x80\n        /* \"#utility.yul\":10276:10339   */\n      tag_242\n        /* \"#utility.yul\":10331:10338   */\n      dup9\n        /* \"#utility.yul\":10322:10328   */\n      dup3\n        /* \"#utility.yul\":10311:10320   */\n      dup10\n        /* \"#utility.yul\":10307:10329   */\n      add\n        /* \"#utility.yul\":10276:10339   */\n      tag_132\n      jump\t// in\n    tag_242:\n        /* \"#utility.yul\":10266:10339   */\n      swap2\n      pop\n        /* \"#utility.yul\":10220:10349   */\n      pop\n        /* \"#utility.yul\":9385:10356   */\n      swap3\n      swap6\n      pop\n      swap3\n      swap6\n      swap1\n      swap4\n      pop\n      jump\t// out\n        /* \"#utility.yul\":10362:10918   */\n    tag_98:\n        /* \"#utility.yul\":10401:10408   */\n      0x00\n        /* \"#utility.yul\":10424:10443   */\n      tag_244\n        /* \"#utility.yul\":10441:10442   */\n      dup3\n        /* \"#utility.yul\":10424:10443   */\n      tag_133\n      jump\t// in\n    tag_244:\n        /* \"#utility.yul\":10419:10443   */\n      swap2\n      pop\n        /* \"#utility.yul\":10457:10476   */\n      tag_245\n        /* \"#utility.yul\":10474:10475   */\n      dup4\n        /* \"#utility.yul\":10457:10476   */\n      tag_133\n      jump\t// in\n    tag_245:\n        /* \"#utility.yul\":10452:10476   */\n      swap3\n      pop\n        /* \"#utility.yul\":10511:10512   */\n      dup3\n        /* \"#utility.yul\":10508:10509   */\n      dup3\n        /* \"#utility.yul\":10504:10513   */\n      mul\n        /* \"#utility.yul\":10533:10562   */\n      tag_246\n        /* \"#utility.yul\":10550:10561   */\n      dup2\n        /* \"#utility.yul\":10533:10562   */\n      tag_133\n      jump\t// in\n    tag_246:\n        /* \"#utility.yul\":10522:10562   */\n      swap2\n      pop\n        /* \"#utility.yul\":10620:10686   */\n      0x8000000000000000000000000000000000000000000000000000000000000000\n        /* \"#utility.yul\":10617:10618   */\n      dup5\n        /* \"#utility.yul\":10614:10687   */\n      eq\n        /* \"#utility.yul\":10610:10611   */\n      0x00\n        /* \"#utility.yul\":10607:10608   */\n      dup5\n        /* \"#utility.yul\":10603:10612   */\n      slt\n        /* \"#utility.yul\":10599:10688   */\n      and\n        /* \"#utility.yul\":10596:10711   */\n      iszero\n      tag_247\n      jumpi\n        /* \"#utility.yul\":10691:10709   */\n      tag_248\n      tag_121\n      jump\t// in\n    tag_248:\n        /* \"#utility.yul\":10596:10711   */\n    tag_247:\n        /* \"#utility.yul\":10861:10862   */\n      dup3\n        /* \"#utility.yul\":10852:10859   */\n      dup3\n        /* \"#utility.yul\":10847:10863   */\n      sdiv\n        /* \"#utility.yul\":10844:10845   */\n      dup5\n        /* \"#utility.yul\":10841:10864   */\n      eq\n        /* \"#utility.yul\":10821:10822   */\n      dup4\n        /* \"#utility.yul\":10814:10823   */\n      iszero\n        /* \"#utility.yul\":10794:10878   */\n      or\n        /* \"#utility.yul\":10771:10911   */\n      tag_249\n      jumpi\n        /* \"#utility.yul\":10891:10909   */\n      tag_250\n      tag_121\n      jump\t// in\n    tag_250:\n        /* \"#utility.yul\":10771:10911   */\n    tag_249:\n        /* \"#utility.yul\":10409:10918   */\n      pop\n        /* \"#utility.yul\":10362:10918   */\n      swap3\n      swap2\n      pop\n      pop\n      jump\t// out\n\n    auxdata: 0xa26469706673582212209c8ae67e94c0b15d2eaf085e5d7aa09a768f68bc09b771ae8ba9aa75aafdcba664736f6c63430008140033\n}\n",
				"bytecode": {
					"linkReferences": {},
					"object": "60a060405234801561000f575f80fd5b503373ffffffffffffffffffffffffffffffffffffffff1660808173ffffffffffffffffffffffffffffffffffffffff1681525050608051610d8e6100635f395f81816102a901526105ab0152610d8e5ff3fe608060405260043610610058575f3560e01c80633430a88c146100715780633ccfd60b1461009b5780633e47d6f3146100b15780638da5cb5b146100ed578063b60d428814610117578063dc0d3dff1461012157610067565b366100675761006561015d565b005b61006f61015d565b005b34801561007c575f80fd5b5061008561029b565b604051610092919061079e565b60405180910390f35b3480156100a6575f80fd5b506100af6102a7565b005b3480156100bc575f80fd5b506100d760048036038101906100d29190610815565b610594565b6040516100e4919061079e565b60405180910390f35b3480156100f8575f80fd5b506101016105a9565b60405161010e919061084f565b60405180910390f35b61011f61015d565b005b34801561012c575f80fd5b5061014760048036038101906101429190610892565b6105cd565b604051610154919061084f565b60405180910390f35b674563918244f4000061016f34610607565b10156101b0576040517f08c379a00000000000000000000000000000000000000000000000000000000081526004016101a790610917565b60405180910390fd5b5f33908060018154018082558091505060019003905f5260205f20015f9091909190916101000a81548173ffffffffffffffffffffffffffffffffffffffff021916908373ffffffffffffffffffffffffffffffffffffffff1602179055503460015f3373ffffffffffffffffffffffffffffffffffffffff1673ffffffffffffffffffffffffffffffffffffffff1681526020019081526020015f20546102589190610962565b60015f3373ffffffffffffffffffffffffffffffffffffffff1673ffffffffffffffffffffffffffffffffffffffff1681526020019081526020015f2081905550565b674563918244f4000081565b7f000000000000000000000000000000000000000000000000000000000000000073ffffffffffffffffffffffffffffffffffffffff163373ffffffffffffffffffffffffffffffffffffffff161461032c576040517f251c9d6300000000000000000000000000000000000000000000000000000000815260040160405180910390fd5b5f5b5f805490508110156103ce575f80828154811061034e5761034d610995565b5b905f5260205f20015f9054906101000a900473ffffffffffffffffffffffffffffffffffffffff1690505f60015f8373ffffffffffffffffffffffffffffffffffffffff1673ffffffffffffffffffffffffffffffffffffffff1681526020019081526020015f20819055505080806103c6906109c2565b91505061032e565b505f67ffffffffffffffff8111156103e9576103e8610a09565b5b6040519080825280602002602001820160405280156104175781602001602082028036833780820191505090505b505f908051906020019061042c9291906106e4565b503373ffffffffffffffffffffffffffffffffffffffff166108fc4790811502906040515f60405180830381858888f19350505050158015610470573d5f803e3d5ffd5b505f3373ffffffffffffffffffffffffffffffffffffffff166108fc4790811502906040515f60405180830381858888f193505050509050806104e8576040517f08c379a00000000000000000000000000000000000000000000000000000000081526004016104df90610a80565b60405180910390fd5b5f3373ffffffffffffffffffffffffffffffffffffffff164760405161050d90610acb565b5f6040518083038185875af1925050503d805f8114610547576040519150601f19603f3d011682016040523d82523d5f602084013e61054c565b606091505b5050905080610590576040517f08c379a000000000000000000000000000000000000000000000000000000000815260040161058790610b29565b60405180910390fd5b5050565b6001602052805f5260405f205f915090505481565b7f000000000000000000000000000000000000000000000000000000000000000081565b5f81815481106105db575f80fd5b905f5260205f20015f915054906101000a900473ffffffffffffffffffffffffffffffffffffffff1681565b5f8061061161063f565b90505f670de0b6b3a764000084836106299190610b47565b6106339190610bb5565b90508092505050919050565b5f8073694aa1769357215de4fac081bf1f309adc32530690505f8173ffffffffffffffffffffffffffffffffffffffff1663feaf968c6040518163ffffffff1660e01b815260040160a060405180830381865afa1580156106a2573d5f803e3d5ffd5b505050506040513d601f19601f820116820180604052508101906106c69190610c6b565b5050509150506402540be400816106dd9190610ce2565b9250505090565b828054828255905f5260205f2090810192821561075a579160200282015b82811115610759578251825f6101000a81548173ffffffffffffffffffffffffffffffffffffffff021916908373ffffffffffffffffffffffffffffffffffffffff16021790555091602001919060010190610702565b5b509050610767919061076b565b5090565b5b80821115610782575f815f90555060010161076c565b5090565b5f819050919050565b61079881610786565b82525050565b5f6020820190506107b15f83018461078f565b92915050565b5f80fd5b5f73ffffffffffffffffffffffffffffffffffffffff82169050919050565b5f6107e4826107bb565b9050919050565b6107f4816107da565b81146107fe575f80fd5b50565b5f8135905061080f816107eb565b92915050565b5f6020828403121561082a576108296107b7565b5b5f61083784828501610801565b91505092915050565b610849816107da565b82525050565b5f6020820190506108625f830184610840565b92915050565b61087181610786565b811461087b575f80fd5b50565b5f8135905061088c81610868565b92915050565b5f602082840312156108a7576108a66107b7565b5b5f6108b48482850161087e565b91505092915050565b5f82825260208201905092915050565b7f4469646e742073656e6420656e6f7567682045544800000000000000000000005f82015250565b5f6109016015836108bd565b915061090c826108cd565b602082019050919050565b5f6020820190508181035f83015261092e816108f5565b9050919050565b7f4e487b71000000000000000000000000000000000000000000000000000000005f52601160045260245ffd5b5f61096c82610786565b915061097783610786565b925082820190508082111561098f5761098e610935565b5b92915050565b7f4e487b71000000000000000000000000000000000000000000000000000000005f52603260045260245ffd5b5f6109cc82610786565b91507fffffffffffffffffffffffffffffffffffffffffffffffffffffffffffffffff82036109fe576109fd610935565b5b600182019050919050565b7f4e487b71000000000000000000000000000000000000000000000000000000005f52604160045260245ffd5b7f53656e64206661696c65640000000000000000000000000000000000000000005f82015250565b5f610a6a600b836108bd565b9150610a7582610a36565b602082019050919050565b5f6020820190508181035f830152610a9781610a5e565b9050919050565b5f81905092915050565b50565b5f610ab65f83610a9e565b9150610ac182610aa8565b5f82019050919050565b5f610ad582610aab565b9150819050919050565b7f43616c6c206661696c65640000000000000000000000000000000000000000005f82015250565b5f610b13600b836108bd565b9150610b1e82610adf565b602082019050919050565b5f6020820190508181035f830152610b4081610b07565b9050919050565b5f610b5182610786565b9150610b5c83610786565b9250828202610b6a81610786565b91508282048414831517610b8157610b80610935565b5b5092915050565b7f4e487b71000000000000000000000000000000000000000000000000000000005f52601260045260245ffd5b5f610bbf82610786565b9150610bca83610786565b925082610bda57610bd9610b88565b5b828204905092915050565b5f69ffffffffffffffffffff82169050919050565b610c0381610be5565b8114610c0d575f80fd5b50565b5f81519050610c1e81610bfa565b92915050565b5f819050919050565b610c3681610c24565b8114610c40575f80fd5b50565b5f81519050610c5181610c2d565b92915050565b5f81519050610c6581610868565b92915050565b5f805f805f60a08688031215610c8457610c836107b7565b5b5f610c9188828901610c10565b9550506020610ca288828901610c43565b9450506040610cb388828901610c57565b9350506060610cc488828901610c57565b9250506080610cd588828901610c10565b9150509295509295909350565b5f610cec82610c24565b9150610cf783610c24565b9250828202610d0581610c24565b91507f800000000000000000000000000000000000000000000000000000000000000084145f84121615610d3c57610d3b610935565b5b8282058414831517610d5157610d50610935565b5b509291505056fea26469706673582212209c8ae67e94c0b15d2eaf085e5d7aa09a768f68bc09b771ae8ba9aa75aafdcba664736f6c63430008140033",
					"opcodes": "PUSH1 0xA0 PUSH1 0x40 MSTORE CALLVALUE DUP1 ISZERO PUSH2 0xF JUMPI PUSH0 DUP1 REVERT JUMPDEST POP CALLER PUSH20 0xFFFFFFFFFFFFFFFFFFFFFFFFFFFFFFFFFFFFFFFF AND PUSH1 0x80 DUP2 PUSH20 0xFFFFFFFFFFFFFFFFFFFFFFFFFFFFFFFFFFFFFFFF AND DUP2 MSTORE POP POP PUSH1 0x80 MLOAD PUSH2 0xD8E PUSH2 0x63 PUSH0 CODECOPY PUSH0 DUP2 DUP2 PUSH2 0x2A9 ADD MSTORE PUSH2 0x5AB ADD MSTORE PUSH2 0xD8E PUSH0 RETURN INVALID PUSH1 0x80 PUSH1 0x40 MSTORE PUSH1 0x4 CALLDATASIZE LT PUSH2 0x58 JUMPI PUSH0 CALLDATALOAD PUSH1 0xE0 SHR DUP1 PUSH4 0x3430A88C EQ PUSH2 0x71 JUMPI DUP1 PUSH4 0x3CCFD60B EQ PUSH2 0x9B JUMPI DUP1 PUSH4 0x3E47D6F3 EQ PUSH2 0xB1 JUMPI DUP1 PUSH4 0x8DA5CB5B EQ PUSH2 0xED JUMPI DUP1 PUSH4 0xB60D4288 EQ PUSH2 0x117 JUMPI DUP1 PUSH4 0xDC0D3DFF EQ PUSH2 0x121 JUMPI PUSH2 0x67 JUMP JUMPDEST CALLDATASIZE PUSH2 0x67 JUMPI PUSH2 0x65 PUSH2 0x15D JUMP JUMPDEST STOP JUMPDEST PUSH2 0x6F PUSH2 0x15D JUMP JUMPDEST STOP JUMPDEST CALLVALUE DUP1 ISZERO PUSH2 0x7C JUMPI PUSH0 DUP1 REVERT JUMPDEST POP PUSH2 0x85 PUSH2 0x29B JUMP JUMPDEST PUSH1 0x40 MLOAD PUSH2 0x92 SWAP2 SWAP1 PUSH2 0x79E JUMP JUMPDEST PUSH1 0x40 MLOAD DUP1 SWAP2 SUB SWAP1 RETURN JUMPDEST CALLVALUE DUP1 ISZERO PUSH2 0xA6 JUMPI PUSH0 DUP1 REVERT JUMPDEST POP PUSH2 0xAF PUSH2 0x2A7 JUMP JUMPDEST STOP JUMPDEST CALLVALUE DUP1 ISZERO PUSH2 0xBC JUMPI PUSH0 DUP1 REVERT JUMPDEST POP PUSH2 0xD7 PUSH1 0x4 DUP1 CALLDATASIZE SUB DUP2 ADD SWAP1 PUSH2 0xD2 SWAP2 SWAP1 PUSH2 0x815 JUMP JUMPDEST PUSH2 0x594 JUMP JUMPDEST PUSH1 0x40 MLOAD PUSH2 0xE4 SWAP2 SWAP1 PUSH2 0x79E JUMP JUMPDEST PUSH1 0x40 MLOAD DUP1 SWAP2 SUB SWAP1 RETURN JUMPDEST CALLVALUE DUP1 ISZERO PUSH2 0xF8 JUMPI PUSH0 DUP1 REVERT JUMPDEST POP PUSH2 0x101 PUSH2 0x5A9 JUMP JUMPDEST PUSH1 0x40 MLOAD PUSH2 0x10E SWAP2 SWAP1 PUSH2 0x84F JUMP JUMPDEST PUSH1 0x40 MLOAD DUP1 SWAP2 SUB SWAP1 RETURN JUMPDEST PUSH2 0x11F PUSH2 0x15D JUMP JUMPDEST STOP JUMPDEST CALLVALUE DUP1 ISZERO PUSH2 0x12C JUMPI PUSH0 DUP1 REVERT JUMPDEST POP PUSH2 0x147 PUSH1 0x4 DUP1 CALLDATASIZE SUB DUP2 ADD SWAP1 PUSH2 0x142 SWAP2 SWAP1 PUSH2 0x892 JUMP JUMPDEST PUSH2 0x5CD JUMP JUMPDEST PUSH1 0x40 MLOAD PUSH2 0x154 SWAP2 SWAP1 PUSH2 0x84F JUMP JUMPDEST PUSH1 0x40 MLOAD DUP1 SWAP2 SUB SWAP1 RETURN JUMPDEST PUSH8 0x4563918244F40000 PUSH2 0x16F CALLVALUE PUSH2 0x607 JUMP JUMPDEST LT ISZERO PUSH2 0x1B0 JUMPI PUSH1 0x40 MLOAD PUSH32 0x8C379A000000000000000000000000000000000000000000000000000000000 DUP2 MSTORE PUSH1 0x4 ADD PUSH2 0x1A7 SWAP1 PUSH2 0x917 JUMP JUMPDEST PUSH1 0x40 MLOAD DUP1 SWAP2 SUB SWAP1 REVERT JUMPDEST PUSH0 CALLER SWAP1 DUP1 PUSH1 0x1 DUP2 SLOAD ADD DUP1 DUP3 SSTORE DUP1 SWAP2 POP POP PUSH1 0x1 SWAP1 SUB SWAP1 PUSH0 MSTORE PUSH1 0x20 PUSH0 KECCAK256 ADD PUSH0 SWAP1 SWAP2 SWAP1 SWAP2 SWAP1 SWAP2 PUSH2 0x100 EXP DUP2 SLOAD DUP2 PUSH20 0xFFFFFFFFFFFFFFFFFFFFFFFFFFFFFFFFFFFFFFFF MUL NOT AND SWAP1 DUP4 PUSH20 0xFFFFFFFFFFFFFFFFFFFFFFFFFFFFFFFFFFFFFFFF AND MUL OR SWAP1 SSTORE POP CALLVALUE PUSH1 0x1 PUSH0 CALLER PUSH20 0xFFFFFFFFFFFFFFFFFFFFFFFFFFFFFFFFFFFFFFFF AND PUSH20 0xFFFFFFFFFFFFFFFFFFFFFFFFFFFFFFFFFFFFFFFF AND DUP2 MSTORE PUSH1 0x20 ADD SWAP1 DUP2 MSTORE PUSH1 0x20 ADD PUSH0 KECCAK256 SLOAD PUSH2 0x258 SWAP2 SWAP1 PUSH2 0x962 JUMP JUMPDEST PUSH1 0x1 PUSH0 CALLER PUSH20 0xFFFFFFFFFFFFFFFFFFFFFFFFFFFFFFFFFFFFFFFF AND PUSH20 0xFFFFFFFFFFFFFFFFFFFFFFFFFFFFFFFFFFFFFFFF AND DUP2 MSTORE PUSH1 0x20 ADD SWAP1 DUP2 MSTORE PUSH1 0x20 ADD PUSH0 KECCAK256 DUP2 SWAP1 SSTORE POP JUMP JUMPDEST PUSH8 0x4563918244F40000 DUP2 JUMP JUMPDEST PUSH32 0x0 PUSH20 0xFFFFFFFFFFFFFFFFFFFFFFFFFFFFFFFFFFFFFFFF AND CALLER PUSH20 0xFFFFFFFFFFFFFFFFFFFFFFFFFFFFFFFFFFFFFFFF AND EQ PUSH2 0x32C JUMPI PUSH1 0x40 MLOAD PUSH32 0x251C9D6300000000000000000000000000000000000000000000000000000000 DUP2 MSTORE PUSH1 0x4 ADD PUSH1 0x40 MLOAD DUP1 SWAP2 SUB SWAP1 REVERT JUMPDEST PUSH0 JUMPDEST PUSH0 DUP1 SLOAD SWAP1 POP DUP2 LT ISZERO PUSH2 0x3CE JUMPI PUSH0 DUP1 DUP3 DUP2 SLOAD DUP2 LT PUSH2 0x34E JUMPI PUSH2 0x34D PUSH2 0x995 JUMP JUMPDEST JUMPDEST SWAP1 PUSH0 MSTORE PUSH1 0x20 PUSH0 KECCAK256 ADD PUSH0 SWAP1 SLOAD SWAP1 PUSH2 0x100 EXP SWAP1 DIV PUSH20 0xFFFFFFFFFFFFFFFFFFFFFFFFFFFFFFFFFFFFFFFF AND SWAP1 POP PUSH0 PUSH1 0x1 PUSH0 DUP4 PUSH20 0xFFFFFFFFFFFFFFFFFFFFFFFFFFFFFFFFFFFFFFFF AND PUSH20 0xFFFFFFFFFFFFFFFFFFFFFFFFFFFFFFFFFFFFFFFF AND DUP2 MSTORE PUSH1 0x20 ADD SWAP1 DUP2 MSTORE PUSH1 0x20 ADD PUSH0 KECCAK256 DUP2 SWAP1 SSTORE POP POP DUP1 DUP1 PUSH2 0x3C6 SWAP1 PUSH2 0x9C2 JUMP JUMPDEST SWAP2 POP POP PUSH2 0x32E JUMP JUMPDEST POP PUSH0 PUSH8 0xFFFFFFFFFFFFFFFF DUP2 GT ISZERO PUSH2 0x3E9 JUMPI PUSH2 0x3E8 PUSH2 0xA09 JUMP JUMPDEST JUMPDEST PUSH1 0x40 MLOAD SWAP1 DUP1 DUP3 MSTORE DUP1 PUSH1 0x20 MUL PUSH1 0x20 ADD DUP3 ADD PUSH1 0x40 MSTORE DUP1 ISZERO PUSH2 0x417 JUMPI DUP2 PUSH1 0x20 ADD PUSH1 0x20 DUP3 MUL DUP1 CALLDATASIZE DUP4 CALLDATACOPY DUP1 DUP3 ADD SWAP2 POP POP SWAP1 POP JUMPDEST POP PUSH0 SWAP1 DUP1 MLOAD SWAP1 PUSH1 0x20 ADD SWAP1 PUSH2 0x42C SWAP3 SWAP2 SWAP1 PUSH2 0x6E4 JUMP JUMPDEST POP CALLER PUSH20 0xFFFFFFFFFFFFFFFFFFFFFFFFFFFFFFFFFFFFFFFF AND PUSH2 0x8FC SELFBALANCE SWAP1 DUP2 ISZERO MUL SWAP1 PUSH1 0x40 MLOAD PUSH0 PUSH1 0x40 MLOAD DUP1 DUP4 SUB DUP2 DUP6 DUP9 DUP9 CALL SWAP4 POP POP POP POP ISZERO DUP1 ISZERO PUSH2 0x470 JUMPI RETURNDATASIZE PUSH0 DUP1 RETURNDATACOPY RETURNDATASIZE PUSH0 REVERT JUMPDEST POP PUSH0 CALLER PUSH20 0xFFFFFFFFFFFFFFFFFFFFFFFFFFFFFFFFFFFFFFFF AND PUSH2 0x8FC SELFBALANCE SWAP1 DUP2 ISZERO MUL SWAP1 PUSH1 0x40 MLOAD PUSH0 PUSH1 0x40 MLOAD DUP1 DUP4 SUB DUP2 DUP6 DUP9 DUP9 CALL SWAP4 POP POP POP POP SWAP1 POP DUP1 PUSH2 0x4E8 JUMPI PUSH1 0x40 MLOAD PUSH32 0x8C379A000000000000000000000000000000000000000000000000000000000 DUP2 MSTORE PUSH1 0x4 ADD PUSH2 0x4DF SWAP1 PUSH2 0xA80 JUMP JUMPDEST PUSH1 0x40 MLOAD DUP1 SWAP2 SUB SWAP1 REVERT JUMPDEST PUSH0 CALLER PUSH20 0xFFFFFFFFFFFFFFFFFFFFFFFFFFFFFFFFFFFFFFFF AND SELFBALANCE PUSH1 0x40 MLOAD PUSH2 0x50D SWAP1 PUSH2 0xACB JUMP JUMPDEST PUSH0 PUSH1 0x40 MLOAD DUP1 DUP4 SUB DUP2 DUP6 DUP8 GAS CALL SWAP3 POP POP POP RETURNDATASIZE DUP1 PUSH0 DUP2 EQ PUSH2 0x547 JUMPI PUSH1 0x40 MLOAD SWAP2 POP PUSH1 0x1F NOT PUSH1 0x3F RETURNDATASIZE ADD AND DUP3 ADD PUSH1 0x40 MSTORE RETURNDATASIZE DUP3 MSTORE RETURNDATASIZE PUSH0 PUSH1 0x20 DUP5 ADD RETURNDATACOPY PUSH2 0x54C JUMP JUMPDEST PUSH1 0x60 SWAP2 POP JUMPDEST POP POP SWAP1 POP DUP1 PUSH2 0x590 JUMPI PUSH1 0x40 MLOAD PUSH32 0x8C379A000000000000000000000000000000000000000000000000000000000 DUP2 MSTORE PUSH1 0x4 ADD PUSH2 0x587 SWAP1 PUSH2 0xB29 JUMP JUMPDEST PUSH1 0x40 MLOAD DUP1 SWAP2 SUB SWAP1 REVERT JUMPDEST POP POP JUMP JUMPDEST PUSH1 0x1 PUSH1 0x20 MSTORE DUP1 PUSH0 MSTORE PUSH1 0x40 PUSH0 KECCAK256 PUSH0 SWAP2 POP SWAP1 POP SLOAD DUP2 JUMP JUMPDEST PUSH32 0x0 DUP2 JUMP JUMPDEST PUSH0 DUP2 DUP2 SLOAD DUP2 LT PUSH2 0x5DB JUMPI PUSH0 DUP1 REVERT JUMPDEST SWAP1 PUSH0 MSTORE PUSH1 0x20 PUSH0 KECCAK256 ADD PUSH0 SWAP2 POP SLOAD SWAP1 PUSH2 0x100 EXP SWAP1 DIV PUSH20 0xFFFFFFFFFFFFFFFFFFFFFFFFFFFFFFFFFFFFFFFF AND DUP2 JUMP JUMPDEST PUSH0 DUP1 PUSH2 0x611 PUSH2 0x63F JUMP JUMPDEST SWAP1 POP PUSH0 PUSH8 0xDE0B6B3A7640000 DUP5 DUP4 PUSH2 0x629 SWAP2 SWAP1 PUSH2 0xB47 JUMP JUMPDEST PUSH2 0x633 SWAP2 SWAP1 PUSH2 0xBB5 JUMP JUMPDEST SWAP1 POP DUP1 SWAP3 POP POP POP SWAP2 SWAP1 POP JUMP JUMPDEST PUSH0 DUP1 PUSH20 0x694AA1769357215DE4FAC081BF1F309ADC325306 SWAP1 POP PUSH0 DUP2 PUSH20 0xFFFFFFFFFFFFFFFFFFFFFFFFFFFFFFFFFFFFFFFF AND PUSH4 0xFEAF968C PUSH1 0x40 MLOAD DUP2 PUSH4 0xFFFFFFFF AND PUSH1 0xE0 SHL DUP2 MSTORE PUSH1 0x4 ADD PUSH1 0xA0 PUSH1 0x40 MLOAD DUP1 DUP4 SUB DUP2 DUP7 GAS STATICCALL ISZERO DUP1 ISZERO PUSH2 0x6A2 JUMPI RETURNDATASIZE PUSH0 DUP1 RETURNDATACOPY RETURNDATASIZE PUSH0 REVERT JUMPDEST POP POP POP POP PUSH1 0x40 MLOAD RETURNDATASIZE PUSH1 0x1F NOT PUSH1 0x1F DUP3 ADD AND DUP3 ADD DUP1 PUSH1 0x40 MSTORE POP DUP2 ADD SWAP1 PUSH2 0x6C6 SWAP2 SWAP1 PUSH2 0xC6B JUMP JUMPDEST POP POP POP SWAP2 POP POP PUSH5 0x2540BE400 DUP2 PUSH2 0x6DD SWAP2 SWAP1 PUSH2 0xCE2 JUMP JUMPDEST SWAP3 POP POP POP SWAP1 JUMP JUMPDEST DUP3 DUP1 SLOAD DUP3 DUP3 SSTORE SWAP1 PUSH0 MSTORE PUSH1 0x20 PUSH0 KECCAK256 SWAP1 DUP2 ADD SWAP3 DUP3 ISZERO PUSH2 0x75A JUMPI SWAP2 PUSH1 0x20 MUL DUP3 ADD JUMPDEST DUP3 DUP2 GT ISZERO PUSH2 0x759 JUMPI DUP3 MLOAD DUP3 PUSH0 PUSH2 0x100 EXP DUP2 SLOAD DUP2 PUSH20 0xFFFFFFFFFFFFFFFFFFFFFFFFFFFFFFFFFFFFFFFF MUL NOT AND SWAP1 DUP4 PUSH20 0xFFFFFFFFFFFFFFFFFFFFFFFFFFFFFFFFFFFFFFFF AND MUL OR SWAP1 SSTORE POP SWAP2 PUSH1 0x20 ADD SWAP2 SWAP1 PUSH1 0x1 ADD SWAP1 PUSH2 0x702 JUMP JUMPDEST JUMPDEST POP SWAP1 POP PUSH2 0x767 SWAP2 SWAP1 PUSH2 0x76B JUMP JUMPDEST POP SWAP1 JUMP JUMPDEST JUMPDEST DUP1 DUP3 GT ISZERO PUSH2 0x782 JUMPI PUSH0 DUP2 PUSH0 SWAP1 SSTORE POP PUSH1 0x1 ADD PUSH2 0x76C JUMP JUMPDEST POP SWAP1 JUMP JUMPDEST PUSH0 DUP2 SWAP1 POP SWAP2 SWAP1 POP JUMP JUMPDEST PUSH2 0x798 DUP2 PUSH2 0x786 JUMP JUMPDEST DUP3 MSTORE POP POP JUMP JUMPDEST PUSH0 PUSH1 0x20 DUP3 ADD SWAP1 POP PUSH2 0x7B1 PUSH0 DUP4 ADD DUP5 PUSH2 0x78F JUMP JUMPDEST SWAP3 SWAP2 POP POP JUMP JUMPDEST PUSH0 DUP1 REVERT JUMPDEST PUSH0 PUSH20 0xFFFFFFFFFFFFFFFFFFFFFFFFFFFFFFFFFFFFFFFF DUP3 AND SWAP1 POP SWAP2 SWAP1 POP JUMP JUMPDEST PUSH0 PUSH2 0x7E4 DUP3 PUSH2 0x7BB JUMP JUMPDEST SWAP1 POP SWAP2 SWAP1 POP JUMP JUMPDEST PUSH2 0x7F4 DUP2 PUSH2 0x7DA JUMP JUMPDEST DUP2 EQ PUSH2 0x7FE JUMPI PUSH0 DUP1 REVERT JUMPDEST POP JUMP JUMPDEST PUSH0 DUP2 CALLDATALOAD SWAP1 POP PUSH2 0x80F DUP2 PUSH2 0x7EB JUMP JUMPDEST SWAP3 SWAP2 POP POP JUMP JUMPDEST PUSH0 PUSH1 0x20 DUP3 DUP5 SUB SLT ISZERO PUSH2 0x82A JUMPI PUSH2 0x829 PUSH2 0x7B7 JUMP JUMPDEST JUMPDEST PUSH0 PUSH2 0x837 DUP5 DUP3 DUP6 ADD PUSH2 0x801 JUMP JUMPDEST SWAP2 POP POP SWAP3 SWAP2 POP POP JUMP JUMPDEST PUSH2 0x849 DUP2 PUSH2 0x7DA JUMP JUMPDEST DUP3 MSTORE POP POP JUMP JUMPDEST PUSH0 PUSH1 0x20 DUP3 ADD SWAP1 POP PUSH2 0x862 PUSH0 DUP4 ADD DUP5 PUSH2 0x840 JUMP JUMPDEST SWAP3 SWAP2 POP POP JUMP JUMPDEST PUSH2 0x871 DUP2 PUSH2 0x786 JUMP JUMPDEST DUP2 EQ PUSH2 0x87B JUMPI PUSH0 DUP1 REVERT JUMPDEST POP JUMP JUMPDEST PUSH0 DUP2 CALLDATALOAD SWAP1 POP PUSH2 0x88C DUP2 PUSH2 0x868 JUMP JUMPDEST SWAP3 SWAP2 POP POP JUMP JUMPDEST PUSH0 PUSH1 0x20 DUP3 DUP5 SUB SLT ISZERO PUSH2 0x8A7 JUMPI PUSH2 0x8A6 PUSH2 0x7B7 JUMP JUMPDEST JUMPDEST PUSH0 PUSH2 0x8B4 DUP5 DUP3 DUP6 ADD PUSH2 0x87E JUMP JUMPDEST SWAP2 POP POP SWAP3 SWAP2 POP POP JUMP JUMPDEST PUSH0 DUP3 DUP3 MSTORE PUSH1 0x20 DUP3 ADD SWAP1 POP SWAP3 SWAP2 POP POP JUMP JUMPDEST PUSH32 0x4469646E742073656E6420656E6F756768204554480000000000000000000000 PUSH0 DUP3 ADD MSTORE POP JUMP JUMPDEST PUSH0 PUSH2 0x901 PUSH1 0x15 DUP4 PUSH2 0x8BD JUMP JUMPDEST SWAP2 POP PUSH2 0x90C DUP3 PUSH2 0x8CD JUMP JUMPDEST PUSH1 0x20 DUP3 ADD SWAP1 POP SWAP2 SWAP1 POP JUMP JUMPDEST PUSH0 PUSH1 0x20 DUP3 ADD SWAP1 POP DUP2 DUP2 SUB PUSH0 DUP4 ADD MSTORE PUSH2 0x92E DUP2 PUSH2 0x8F5 JUMP JUMPDEST SWAP1 POP SWAP2 SWAP1 POP JUMP JUMPDEST PUSH32 0x4E487B7100000000000000000000000000000000000000000000000000000000 PUSH0 MSTORE PUSH1 0x11 PUSH1 0x4 MSTORE PUSH1 0x24 PUSH0 REVERT JUMPDEST PUSH0 PUSH2 0x96C DUP3 PUSH2 0x786 JUMP JUMPDEST SWAP2 POP PUSH2 0x977 DUP4 PUSH2 0x786 JUMP JUMPDEST SWAP3 POP DUP3 DUP3 ADD SWAP1 POP DUP1 DUP3 GT ISZERO PUSH2 0x98F JUMPI PUSH2 0x98E PUSH2 0x935 JUMP JUMPDEST JUMPDEST SWAP3 SWAP2 POP POP JUMP JUMPDEST PUSH32 0x4E487B7100000000000000000000000000000000000000000000000000000000 PUSH0 MSTORE PUSH1 0x32 PUSH1 0x4 MSTORE PUSH1 0x24 PUSH0 REVERT JUMPDEST PUSH0 PUSH2 0x9CC DUP3 PUSH2 0x786 JUMP JUMPDEST SWAP2 POP PUSH32 0xFFFFFFFFFFFFFFFFFFFFFFFFFFFFFFFFFFFFFFFFFFFFFFFFFFFFFFFFFFFFFFFF DUP3 SUB PUSH2 0x9FE JUMPI PUSH2 0x9FD PUSH2 0x935 JUMP JUMPDEST JUMPDEST PUSH1 0x1 DUP3 ADD SWAP1 POP SWAP2 SWAP1 POP JUMP JUMPDEST PUSH32 0x4E487B7100000000000000000000000000000000000000000000000000000000 PUSH0 MSTORE PUSH1 0x41 PUSH1 0x4 MSTORE PUSH1 0x24 PUSH0 REVERT JUMPDEST PUSH32 0x53656E64206661696C6564000000000000000000000000000000000000000000 PUSH0 DUP3 ADD MSTORE POP JUMP JUMPDEST PUSH0 PUSH2 0xA6A PUSH1 0xB DUP4 PUSH2 0x8BD JUMP JUMPDEST SWAP2 POP PUSH2 0xA75 DUP3 PUSH2 0xA36 JUMP JUMPDEST PUSH1 0x20 DUP3 ADD SWAP1 POP SWAP2 SWAP1 POP JUMP JUMPDEST PUSH0 PUSH1 0x20 DUP3 ADD SWAP1 POP DUP2 DUP2 SUB PUSH0 DUP4 ADD MSTORE PUSH2 0xA97 DUP2 PUSH2 0xA5E JUMP JUMPDEST SWAP1 POP SWAP2 SWAP1 POP JUMP JUMPDEST PUSH0 DUP2 SWAP1 POP SWAP3 SWAP2 POP POP JUMP JUMPDEST POP JUMP JUMPDEST PUSH0 PUSH2 0xAB6 PUSH0 DUP4 PUSH2 0xA9E JUMP JUMPDEST SWAP2 POP PUSH2 0xAC1 DUP3 PUSH2 0xAA8 JUMP JUMPDEST PUSH0 DUP3 ADD SWAP1 POP SWAP2 SWAP1 POP JUMP JUMPDEST PUSH0 PUSH2 0xAD5 DUP3 PUSH2 0xAAB JUMP JUMPDEST SWAP2 POP DUP2 SWAP1 POP SWAP2 SWAP1 POP JUMP JUMPDEST PUSH32 0x43616C6C206661696C6564000000000000000000000000000000000000000000 PUSH0 DUP3 ADD MSTORE POP JUMP JUMPDEST PUSH0 PUSH2 0xB13 PUSH1 0xB DUP4 PUSH2 0x8BD JUMP JUMPDEST SWAP2 POP PUSH2 0xB1E DUP3 PUSH2 0xADF JUMP JUMPDEST PUSH1 0x20 DUP3 ADD SWAP1 POP SWAP2 SWAP1 POP JUMP JUMPDEST PUSH0 PUSH1 0x20 DUP3 ADD SWAP1 POP DUP2 DUP2 SUB PUSH0 DUP4 ADD MSTORE PUSH2 0xB40 DUP2 PUSH2 0xB07 JUMP JUMPDEST SWAP1 POP SWAP2 SWAP1 POP JUMP JUMPDEST PUSH0 PUSH2 0xB51 DUP3 PUSH2 0x786 JUMP JUMPDEST SWAP2 POP PUSH2 0xB5C DUP4 PUSH2 0x786 JUMP JUMPDEST SWAP3 POP DUP3 DUP3 MUL PUSH2 0xB6A DUP2 PUSH2 0x786 JUMP JUMPDEST SWAP2 POP DUP3 DUP3 DIV DUP5 EQ DUP4 ISZERO OR PUSH2 0xB81 JUMPI PUSH2 0xB80 PUSH2 0x935 JUMP JUMPDEST JUMPDEST POP SWAP3 SWAP2 POP POP JUMP JUMPDEST PUSH32 0x4E487B7100000000000000000000000000000000000000000000000000000000 PUSH0 MSTORE PUSH1 0x12 PUSH1 0x4 MSTORE PUSH1 0x24 PUSH0 REVERT JUMPDEST PUSH0 PUSH2 0xBBF DUP3 PUSH2 0x786 JUMP JUMPDEST SWAP2 POP PUSH2 0xBCA DUP4 PUSH2 0x786 JUMP JUMPDEST SWAP3 POP DUP3 PUSH2 0xBDA JUMPI PUSH2 0xBD9 PUSH2 0xB88 JUMP JUMPDEST JUMPDEST DUP3 DUP3 DIV SWAP1 POP SWAP3 SWAP2 POP POP JUMP JUMPDEST PUSH0 PUSH10 0xFFFFFFFFFFFFFFFFFFFF DUP3 AND SWAP1 POP SWAP2 SWAP1 POP JUMP JUMPDEST PUSH2 0xC03 DUP2 PUSH2 0xBE5 JUMP JUMPDEST DUP2 EQ PUSH2 0xC0D JUMPI PUSH0 DUP1 REVERT JUMPDEST POP JUMP JUMPDEST PUSH0 DUP2 MLOAD SWAP1 POP PUSH2 0xC1E DUP2 PUSH2 0xBFA JUMP JUMPDEST SWAP3 SWAP2 POP POP JUMP JUMPDEST PUSH0 DUP2 SWAP1 POP SWAP2 SWAP1 POP JUMP JUMPDEST PUSH2 0xC36 DUP2 PUSH2 0xC24 JUMP JUMPDEST DUP2 EQ PUSH2 0xC40 JUMPI PUSH0 DUP1 REVERT JUMPDEST POP JUMP JUMPDEST PUSH0 DUP2 MLOAD SWAP1 POP PUSH2 0xC51 DUP2 PUSH2 0xC2D JUMP JUMPDEST SWAP3 SWAP2 POP POP JUMP JUMPDEST PUSH0 DUP2 MLOAD SWAP1 POP PUSH2 0xC65 DUP2 PUSH2 0x868 JUMP JUMPDEST SWAP3 SWAP2 POP POP JUMP JUMPDEST PUSH0 DUP1 PUSH0 DUP1 PUSH0 PUSH1 0xA0 DUP7 DUP9 SUB SLT ISZERO PUSH2 0xC84 JUMPI PUSH2 0xC83 PUSH2 0x7B7 JUMP JUMPDEST JUMPDEST PUSH0 PUSH2 0xC91 DUP9 DUP3 DUP10 ADD PUSH2 0xC10 JUMP JUMPDEST SWAP6 POP POP PUSH1 0x20 PUSH2 0xCA2 DUP9 DUP3 DUP10 ADD PUSH2 0xC43 JUMP JUMPDEST SWAP5 POP POP PUSH1 0x40 PUSH2 0xCB3 DUP9 DUP3 DUP10 ADD PUSH2 0xC57 JUMP JUMPDEST SWAP4 POP POP PUSH1 0x60 PUSH2 0xCC4 DUP9 DUP3 DUP10 ADD PUSH2 0xC57 JUMP JUMPDEST SWAP3 POP POP PUSH1 0x80 PUSH2 0xCD5 DUP9 DUP3 DUP10 ADD PUSH2 0xC10 JUMP JUMPDEST SWAP2 POP POP SWAP3 SWAP6 POP SWAP3 SWAP6 SWAP1 SWAP4 POP JUMP JUMPDEST PUSH0 PUSH2 0xCEC DUP3 PUSH2 0xC24 JUMP JUMPDEST SWAP2 POP PUSH2 0xCF7 DUP4 PUSH2 0xC24 JUMP JUMPDEST SWAP3 POP DUP3 DUP3 MUL PUSH2 0xD05 DUP2 PUSH2 0xC24 JUMP JUMPDEST SWAP2 POP PUSH32 0x8000000000000000000000000000000000000000000000000000000000000000 DUP5 EQ PUSH0 DUP5 SLT AND ISZERO PUSH2 0xD3C JUMPI PUSH2 0xD3B PUSH2 0x935 JUMP JUMPDEST JUMPDEST DUP3 DUP3 SDIV DUP5 EQ DUP4 ISZERO OR PUSH2 0xD51 JUMPI PUSH2 0xD50 PUSH2 0x935 JUMP JUMPDEST JUMPDEST POP SWAP3 SWAP2 POP POP JUMP INVALID LOG2 PUSH5 0x6970667358 0x22 SLT KECCAK256 SWAP13 DUP11 0xE6 PUSH31 0x94C0B15D2EAF085E5D7AA09A768F68BC09B771AE8BA9AA75AAFDCBA664736F PUSH13 0x63430008140033000000000000 "
				},
				"gasEstimates": {
					"creation": {
						"codeDepositCost": "694000",
						"executionCost": "infinite",
						"totalCost": "infinite"
					},
					"external": {
						"": "infinite",
						"addressToAmountFunded(address)": "2824",
						"fund()": "infinite",
						"funders(uint256)": "5031",
						"minimumUSD()": "303",
						"owner()": "infinite",
						"withdraw()": "infinite"
					}
				},
				"methodIdentifiers": {
					"addressToAmountFunded(address)": "3e47d6f3",
					"fund()": "b60d4288",
					"funders(uint256)": "dc0d3dff",
					"minimumUSD()": "3430a88c",
					"owner()": "8da5cb5b",
					"withdraw()": "3ccfd60b"
				}
			},
			"storageLayout": {
				"storage": [
					{
						"astId": 62,
						"contract": "contracts/FundMe.sol:FundMe",
						"label": "funders",
						"offset": 0,
						"slot": "0",
						"type": "t_array(t_address)dyn_storage"
					},
					{
						"astId": 66,
						"contract": "contracts/FundMe.sol:FundMe",
						"label": "addressToAmountFunded",
						"offset": 0,
						"slot": "1",
						"type": "t_mapping(t_address,t_uint256)"
					}
				],
				"types": {
					"t_address": {
						"encoding": "inplace",
						"label": "address",
						"numberOfBytes": "20"
					},
					"t_array(t_address)dyn_storage": {
						"base": "t_address",
						"encoding": "dynamic_array",
						"label": "address[]",
						"numberOfBytes": "32"
					},
					"t_mapping(t_address,t_uint256)": {
						"encoding": "mapping",
						"key": "t_address",
						"label": "mapping(address => uint256)",
						"numberOfBytes": "32",
						"value": "t_uint256"
					},
					"t_uint256": {
						"encoding": "inplace",
						"label": "uint256",
						"numberOfBytes": "32"
					}
				}
			},
			"userdoc": {
				"kind": "user",
				"methods": {},
				"version": 1
			}
		}
	}
}